{
  "contractName": "Main",
  "abi": [
    {
      "constant": true,
      "inputs": [
        {
          "name": "",
          "type": "uint256"
        }
      ],
      "name": "shops",
      "outputs": [
        {
          "name": "",
          "type": "string"
        }
      ],
      "payable": false,
      "stateMutability": "view",
      "type": "function"
    },
    {
      "inputs": [],
      "payable": false,
      "stateMutability": "nonpayable",
      "type": "constructor"
    },
    {
      "constant": false,
      "inputs": [
        {
          "name": "name",
          "type": "string"
        }
      ],
      "name": "addShop",
      "outputs": [],
      "payable": false,
      "stateMutability": "nonpayable",
      "type": "function"
    },
    {
      "constant": true,
      "inputs": [
        {
          "name": "name",
          "type": "string"
        }
      ],
      "name": "getShop",
      "outputs": [
        {
          "name": "",
          "type": "uint256"
        },
        {
          "name": "",
          "type": "string"
        },
        {
          "name": "",
          "type": "address"
        }
      ],
      "payable": false,
      "stateMutability": "view",
      "type": "function"
    },
    {
      "constant": true,
      "inputs": [],
      "name": "getShopSize",
      "outputs": [
        {
          "name": "",
          "type": "uint256"
        }
      ],
      "payable": false,
      "stateMutability": "view",
      "type": "function"
    },
    {
      "constant": false,
      "inputs": [
        {
          "name": "name",
          "type": "string"
        }
      ],
      "name": "addReviewer",
      "outputs": [],
      "payable": false,
      "stateMutability": "nonpayable",
      "type": "function"
    },
    {
      "constant": true,
      "inputs": [
        {
          "name": "a",
          "type": "address"
        }
      ],
      "name": "getReviewer",
      "outputs": [
        {
          "name": "",
          "type": "uint256"
        },
        {
          "name": "",
          "type": "string"
        },
        {
          "name": "",
          "type": "address"
        }
      ],
      "payable": false,
      "stateMutability": "view",
      "type": "function"
    },
    {
      "constant": true,
      "inputs": [],
      "name": "getReviewerSize",
      "outputs": [
        {
          "name": "",
          "type": "uint256"
        }
      ],
      "payable": false,
      "stateMutability": "view",
      "type": "function"
    },
    {
      "constant": false,
      "inputs": [
        {
          "name": "reviewee",
          "type": "string"
        },
        {
          "name": "score",
          "type": "uint256"
        },
        {
          "name": "comment",
          "type": "string"
        }
      ],
      "name": "addReview",
      "outputs": [],
      "payable": false,
      "stateMutability": "nonpayable",
      "type": "function"
    },
    {
      "constant": true,
      "inputs": [
        {
          "name": "s",
          "type": "string"
        },
        {
          "name": "k",
          "type": "uint256"
        }
      ],
      "name": "updateShopScore",
      "outputs": [],
      "payable": false,
      "stateMutability": "view",
      "type": "function"
    },
    {
      "constant": true,
      "inputs": [
        {
          "name": "r",
          "type": "string"
        },
        {
          "name": "k",
          "type": "uint256"
        }
      ],
      "name": "updateReviewerScore",
      "outputs": [],
      "payable": false,
      "stateMutability": "view",
      "type": "function"
    },
    {
      "constant": false,
      "inputs": [
        {
          "name": "t",
          "type": "address"
        }
      ],
      "name": "addPeerReviews",
      "outputs": [],
      "payable": false,
      "stateMutability": "nonpayable",
      "type": "function"
    },
    {
      "constant": true,
      "inputs": [
        {
          "name": "i",
          "type": "uint256"
        }
      ],
      "name": "getPeerReviews",
      "outputs": [
        {
          "name": "",
          "type": "uint256[]"
        }
      ],
      "payable": false,
      "stateMutability": "view",
      "type": "function"
    }
  ],
  "bytecode": "0x608060405234801561001057600080fd5b50600080819055506000600181905550611d8c8061002f6000396000f3fe6080604052600436106100ba576000357c0100000000000000000000000000000000000000000000000000000000900463ffffffff1680630c1fa2bc146100bf578063713aca741461018757806380498cbe1461023b5780638979d9011461030d578063a65ef9f014610411578063a9ccf5c41461057a578063c5131ae714610642578063e240759814610693578063e2f1868b14610765578063ea41608a14610790578063f52d106d14610820578063fa28dc0b1461084b575b600080fd5b3480156100cb57600080fd5b50610185600480360360208110156100e257600080fd5b81019080803590602001906401000000008111156100ff57600080fd5b82018360208201111561011157600080fd5b8035906020019184600183028401116401000000008311171561013357600080fd5b91908080601f016020809104026020016040519081016040528093929190818152602001838380828437600081840152601f19601f8201169050808301925050505050505091929192905050506109c6565b005b34801561019357600080fd5b506101c0600480360360208110156101aa57600080fd5b8101908080359060200190929190505050610b34565b6040518080602001828103825283818151815260200191508051906020019080838360005b838110156102005780820151818401526020810190506101e5565b50505050905090810190601f16801561022d5780820380516001836020036101000a031916815260200191505b509250505060405180910390f35b34801561024757600080fd5b5061030b6004803603604081101561025e57600080fd5b810190808035906020019064010000000081111561027b57600080fd5b82018360208201111561028d57600080fd5b803590602001918460018302840111640100000000831117156102af57600080fd5b91908080601f016020809104026020016040519081016040528093929190818152602001838380828437600081840152601f19601f82011690508083019250505050505050919291929080359060200190929190505050610bef565b005b34801561031957600080fd5b5061035c6004803603602081101561033057600080fd5b81019080803573ffffffffffffffffffffffffffffffffffffffff169060200190929190505050610e00565b60405180848152602001806020018373ffffffffffffffffffffffffffffffffffffffff1673ffffffffffffffffffffffffffffffffffffffff168152602001828103825284818151815260200191508051906020019080838360005b838110156103d45780820151818401526020810190506103b9565b50505050905090810190601f1680156104015780820380516001836020036101000a031916815260200191505b5094505050505060405180910390f35b34801561041d57600080fd5b506105786004803603606081101561043457600080fd5b810190808035906020019064010000000081111561045157600080fd5b82018360208201111561046357600080fd5b8035906020019184600183028401116401000000008311171561048557600080fd5b91908080601f016020809104026020016040519081016040528093929190818152602001838380828437600081840152601f19601f82011690508083019250505050505050919291929080359060200190929190803590602001906401000000008111156104f257600080fd5b82018360208201111561050457600080fd5b8035906020019184600183028401116401000000008311171561052657600080fd5b91908080601f016020809104026020016040519081016040528093929190818152602001838380828437600081840152601f19601f820116905080830192505050505050509192919290505050610f91565b005b34801561058657600080fd5b506106406004803603602081101561059d57600080fd5b81019080803590602001906401000000008111156105ba57600080fd5b8201836020820111156105cc57600080fd5b803590602001918460018302840111640100000000831117156105ee57600080fd5b91908080601f016020809104026020016040519081016040528093929190818152602001838380828437600081840152601f19601f820116905080830192505050505050509192919290505050611238565b005b34801561064e57600080fd5b506106916004803603602081101561066557600080fd5b81019080803573ffffffffffffffffffffffffffffffffffffffff169060200190929190505050611465565b005b34801561069f57600080fd5b50610763600480360360408110156106b657600080fd5b81019080803590602001906401000000008111156106d357600080fd5b8201836020820111156106e557600080fd5b8035906020019184600183028401116401000000008311171561070757600080fd5b91908080601f016020809104026020016040519081016040528093929190818152602001838380828437600081840152601f19601f82011690508083019250505050505050919291929080359060200190929190505050611788565b005b34801561077157600080fd5b5061077a611920565b6040518082815260200191505060405180910390f35b34801561079c57600080fd5b506107c9600480360360208110156107b357600080fd5b810190808035906020019092919050505061192a565b6040518080602001828103825283818151815260200191508051906020019060200280838360005b8381101561080c5780820151818401526020810190506107f1565b505050509050019250505060405180910390f35b34801561082c57600080fd5b50610835611995565b6040518082815260200191505060405180910390f35b34801561085757600080fd5b506109116004803603602081101561086e57600080fd5b810190808035906020019064010000000081111561088b57600080fd5b82018360208201111561089d57600080fd5b803590602001918460018302840111640100000000831117156108bf57600080fd5b91908080601f016020809104026020016040519081016040528093929190818152602001838380828437600081840152601f19601f82011690508083019250505050505050919291929050505061199e565b60405180848152602001806020018373ffffffffffffffffffffffffffffffffffffffff1673ffffffffffffffffffffffffffffffffffffffff168152602001828103825284818151815260200191508051906020019080838360005b8381101561098957808201518184015260208101905061096e565b50505050905090810190601f1680156109b65780820380516001836020036101000a031916815260200191505b5094505050505060405180910390f35b6003819080600181540180825580915050906001820390600052602060002001600090919290919091509080519060200190610a03929190611b47565b5050610a0d611bc7565b606060405190810160405280600081526020018381526020013373ffffffffffffffffffffffffffffffffffffffff168152509050806002836040518082805190602001908083835b602083101515610a7b5780518252602082019150602081019050602083039250610a56565b6001836020036101000a0380198251168184511680821785525050505050509050019150509081526020016040518091039020600082015181600001556020820151816001019080519060200190610ad4929190611bff565b5060408201518160020160006101000a81548173ffffffffffffffffffffffffffffffffffffffff021916908373ffffffffffffffffffffffffffffffffffffffff16021790555090505060008081548092919060010191905055505050565b600381815481101515610b4357fe5b906000526020600020016000915090508054600181600116156101000203166002900480601f016020809104026020016040519081016040528092919081815260200182805460018160011615610100020316600290048015610be75780601f10610bbc57610100808354040283529160200191610be7565b820191906000526020600020905b815481529060010190602001808311610bca57829003601f168201915b505050505081565b60006005836040518082805190602001908083835b602083101515610c295780518252602082019150602081019050602083039250610c04565b6001836020036101000a038019825116818451168082178552505050505050905001915050908152602001604051809103902060009054906101000a900473ffffffffffffffffffffffffffffffffffffffff169050610c87611c7f565b600460008373ffffffffffffffffffffffffffffffffffffffff1673ffffffffffffffffffffffffffffffffffffffff16815260200190815260200160002060a0604051908101604052908160008201548152602001600182018054600181600116156101000203166002900480601f016020809104026020016040519081016040528092919081815260200182805460018160011615610100020316600290048015610d755780601f10610d4a57610100808354040283529160200191610d75565b820191906000526020600020905b815481529060010190602001808311610d5857829003601f168201915b505050505081526020016002820160009054906101000a900473ffffffffffffffffffffffffffffffffffffffff1673ffffffffffffffffffffffffffffffffffffffff1673ffffffffffffffffffffffffffffffffffffffff1681526020016003820154815260200160048201548152505090508281600001818151019150818152505050505050565b600060606000610e0e611c7f565b600460008673ffffffffffffffffffffffffffffffffffffffff1673ffffffffffffffffffffffffffffffffffffffff16815260200190815260200160002060a0604051908101604052908160008201548152602001600182018054600181600116156101000203166002900480601f016020809104026020016040519081016040528092919081815260200182805460018160011615610100020316600290048015610efc5780601f10610ed157610100808354040283529160200191610efc565b820191906000526020600020905b815481529060010190602001808311610edf57829003601f168201915b505050505081526020016002820160009054906101000a900473ffffffffffffffffffffffffffffffffffffffff1673ffffffffffffffffffffffffffffffffffffffff1673ffffffffffffffffffffffffffffffffffffffff168152602001600382015481526020016004820154815250509050806000015181602001518260400151819150935093509350509193909250565b610f99611c7f565b600460003373ffffffffffffffffffffffffffffffffffffffff1673ffffffffffffffffffffffffffffffffffffffff16815260200190815260200160002060a0604051908101604052908160008201548152602001600182018054600181600116156101000203166002900480601f0160208091040260200160405190810160405280929190818152602001828054600181600116156101000203166002900480156110875780601f1061105c57610100808354040283529160200191611087565b820191906000526020600020905b81548152906001019060200180831161106a57829003601f168201915b505050505081526020016002820160009054906101000a900473ffffffffffffffffffffffffffffffffffffffff1673ffffffffffffffffffffffffffffffffffffffff1673ffffffffffffffffffffffffffffffffffffffff168152602001600382015481526020016004820154815250509050611104611cc5565b608060405190810160405280858152602001868152602001836020015181526020018481525090506007856040518082805190602001908083835b602083101515611164578051825260208201915060208101905060208303925061113f565b6001836020036101000a038019825116818451168082178552505050505050905001915050908152602001604051809103902081908060018154018082558091505090600182039060005260206000209060040201600090919290919091506000820151816000015560208201518160010190805190602001906111e9929190611bff565b506040820151816002019080519060200190611206929190611bff565b506060820151816003019080519060200190611223929190611bff565b505050506112318585611788565b5050505050565b611240611c7f565b60a060405190810160405280600081526020018381526020013373ffffffffffffffffffffffffffffffffffffffff16815260200160015481526020016000815250905080600460003373ffffffffffffffffffffffffffffffffffffffff1673ffffffffffffffffffffffffffffffffffffffff1681526020019081526020016000206000820151816000015560208201518160010190805190602001906112ea929190611bff565b5060408201518160020160006101000a81548173ffffffffffffffffffffffffffffffffffffffff021916908373ffffffffffffffffffffffffffffffffffffffff1602179055506060820151816003015560808201518160040155905050336005836040518082805190602001908083835b602083101515611382578051825260208201915060208101905060208303925061135d565b6001836020036101000a038019825116818451168082178552505050505050905001915050908152602001604051809103902060006101000a81548173ffffffffffffffffffffffffffffffffffffffff021916908373ffffffffffffffffffffffffffffffffffffffff16021790555060646040519080825280602002602001820160405280156114235781602001602082028038833980820191505090505b506006600083606001518152602001908152602001600020908051906020019061144e929190611cee565b506001600081548092919060010191905055505050565b61146d611c7f565b600460008373ffffffffffffffffffffffffffffffffffffffff1673ffffffffffffffffffffffffffffffffffffffff16815260200190815260200160002060a0604051908101604052908160008201548152602001600182018054600181600116156101000203166002900480601f01602080910402602001604051908101604052809291908181526020018280546001816001161561010002031660029004801561155b5780601f106115305761010080835404028352916020019161155b565b820191906000526020600020905b81548152906001019060200180831161153e57829003601f168201915b505050505081526020016002820160009054906101000a900473ffffffffffffffffffffffffffffffffffffffff1673ffffffffffffffffffffffffffffffffffffffff1673ffffffffffffffffffffffffffffffffffffffff1681526020016003820154815260200160048201548152505090506115d8611c7f565b600460003373ffffffffffffffffffffffffffffffffffffffff1673ffffffffffffffffffffffffffffffffffffffff16815260200190815260200160002060a0604051908101604052908160008201548152602001600182018054600181600116156101000203166002900480601f0160208091040260200160405190810160405280929190818152602001828054600181600116156101000203166002900480156116c65780601f1061169b576101008083540402835291602001916116c6565b820191906000526020600020905b8154815290600101906020018083116116a957829003601f168201915b505050505081526020016002820160009054906101000a900473ffffffffffffffffffffffffffffffffffffffff1673ffffffffffffffffffffffffffffffffffffffff1673ffffffffffffffffffffffffffffffffffffffff1681526020016003820154815260200160048201548152505090508060800180518091906001018152505060016006600083606001518152602001908152602001600020836060015181548110151561177557fe5b9060005260206000200181905550505050565b611790611bc7565b6002836040518082805190602001908083835b6020831015156117c857805182526020820191506020810190506020830392506117a3565b6001836020036101000a03801982511681845116808217855250505050505090500191505090815260200160405180910390206060604051908101604052908160008201548152602001600182018054600181600116156101000203166002900480601f0160208091040260200160405190810160405280929190818152602001828054600181600116156101000203166002900480156118aa5780601f1061187f576101008083540402835291602001916118aa565b820191906000526020600020905b81548152906001019060200180831161188d57829003601f168201915b505050505081526020016002820160009054906101000a900473ffffffffffffffffffffffffffffffffffffffff1673ffffffffffffffffffffffffffffffffffffffff1673ffffffffffffffffffffffffffffffffffffffff1681525050905081816000018181510191508181525050505050565b6000600154905090565b60606006600083815260200190815260200160002080548060200260200160405190810160405280929190818152602001828054801561198957602002820191906000526020600020905b815481526020019060010190808311611975575b50505050509050919050565b60008054905090565b6000606060006119ac611bc7565b6002856040518082805190602001908083835b6020831015156119e457805182526020820191506020810190506020830392506119bf565b6001836020036101000a03801982511681845116808217855250505050505090500191505090815260200160405180910390206060604051908101604052908160008201548152602001600182018054600181600116156101000203166002900480601f016020809104026020016040519081016040528092919081815260200182805460018160011615610100020316600290048015611ac65780601f10611a9b57610100808354040283529160200191611ac6565b820191906000526020600020905b815481529060010190602001808311611aa957829003601f168201915b505050505081526020016002820160009054906101000a900473ffffffffffffffffffffffffffffffffffffffff1673ffffffffffffffffffffffffffffffffffffffff1673ffffffffffffffffffffffffffffffffffffffff16815250509050806000015181602001518260400151819150935093509350509193909250565b828054600181600116156101000203166002900490600052602060002090601f016020900481019282601f10611b8857805160ff1916838001178555611bb6565b82800160010185558215611bb6579182015b82811115611bb5578251825591602001919060010190611b9a565b5b509050611bc39190611d3b565b5090565b6060604051908101604052806000815260200160608152602001600073ffffffffffffffffffffffffffffffffffffffff1681525090565b828054600181600116156101000203166002900490600052602060002090601f016020900481019282601f10611c4057805160ff1916838001178555611c6e565b82800160010185558215611c6e579182015b82811115611c6d578251825591602001919060010190611c52565b5b509050611c7b9190611d3b565b5090565b60a0604051908101604052806000815260200160608152602001600073ffffffffffffffffffffffffffffffffffffffff16815260200160008152602001600081525090565b608060405190810160405280600081526020016060815260200160608152602001606081525090565b828054828255906000526020600020908101928215611d2a579160200282015b82811115611d29578251825591602001919060010190611d0e565b5b509050611d379190611d3b565b5090565b611d5d91905b80821115611d59576000816000905550600101611d41565b5090565b9056fea165627a7a723058208a25a2217418c419437cd99672f23add6cb7ece73dcfd9009b147191c92176f10029",
  "source": "pragma solidity  ^0.5.0;\n\ncontract Main {\n\n  uint private shopSize;\n  uint private reviewerSize;\n\n  constructor() public {\n    shopSize = 0;\n    reviewerSize = 0;\n  }\n\n struct Shop {\n    uint score;\n    string name;\n    address owner;\n  }\n\n  struct Reviewer {\n    uint score;\n    string name;\n    address owner;\n    uint id;\n    uint peerReviewNum;\n  }\n\n  struct Review {\n    uint score;\n    string shopName;\n    string reviewerName;\n    string comment;\n  }\n\n  //name <-> shop\n  mapping(string => Shop) private ShopDetails;\n\n  // shop name list\n  string[] public shops;\n\n  function addShop(string memory name) public {\n    shops.push(name);\n    Shop memory s = Shop(0,name,msg.sender);\n    ShopDetails[name] = s;\n    shopSize++;\n  }\n\n  function getShop(string memory name) public view returns (uint,string memory,address) {\n    Shop memory s = ShopDetails[name];\n    return (s.score, s.name, s.owner);\n  }\n\n  function getShopSize() public view returns (uint) {\n    return shopSize;\n  }\n\n  //address <-> reviewer\n  mapping(address => Reviewer) private reviewers;\n  mapping(string => address) private reviewerMap;\n  mapping(uint => uint[]) peerReviews;\n\n  function addReviewer(string memory name) public {\n    Reviewer memory r = Reviewer(0,name,msg.sender,reviewerSize,0);\n    reviewers[msg.sender] = r;\n    reviewerMap[name] = msg.sender;\n    peerReviews[r.id] = new uint[](100);\n    reviewerSize++;\n  }\n\n  function getReviewer(address a) public view returns (uint,string memory,address) {\n    Reviewer memory r = reviewers[a];\n    return (r.score, r.name, r.owner);\n  }\n\n  function getReviewerSize() public view returns (uint) {\n    return  reviewerSize;\n  }\n\n  //shop name <-> review list\n  mapping(string => Review[]) reviewMap;\n\n  function addReview(string memory reviewee, uint score, string memory comment) public {\n      Reviewer memory reviewer = reviewers[msg.sender];\n      Review memory review = Review(score,reviewee,reviewer.name,comment);\n      reviewMap[reviewee].push(review);\n      updateShopScore(reviewee,score);\n  }\n\n  // function getReview(string memory s) public view returns (Review[]) {\n  //     //Exception handling\n  //     return reviewMap[s];\n  // }\n\n  function updateShopScore(string memory s, uint k) public view {\n      Shop memory target = ShopDetails[s];\n      target.score += k;\n  }\n\n  function updateReviewerScore(string memory r, uint k) public view{\n      address ta = reviewerMap[r];\n      Reviewer memory target = reviewers[ta];\n      target.score += k;\n  }\n\n  function addPeerReviews(address t) public{\n    Reviewer memory target = reviewers[t];\n    Reviewer memory reviewer = reviewers[msg.sender];\n    reviewer.peerReviewNum++;\n    peerReviews[reviewer.id][target.id] = 1;\n  }\n\n  function getPeerReviews(uint i) public view returns(uint[] memory){\n    return peerReviews[i];\n  }\n}",
  "sourcePath": "/Users/admin/Desktop/Reviews/contracts/Main.sol",
  "compiler": {
    "name": "solc",
    "version": "0.5.0+commit.1d4f565a.Emscripten.clang"
  },
  "schemaVersion": "3.0.6",
  "updatedAt": "2019-05-19T05:55:20.479Z",
  "devdoc": {
    "methods": {}
  },
  "userdoc": {
    "methods": {}
  }
}