{
  "contractName": "Main",
  "abi": [
    {
      "constant": true,
      "inputs": [
        {
          "name": "",
          "type": "uint256"
        }
      ],
      "name": "checkers",
      "outputs": [
        {
          "name": "adrs",
          "type": "address"
        }
      ],
      "payable": false,
      "stateMutability": "view",
      "type": "function",
      "signature": "0x0584fd8d"
    },
    {
      "inputs": [],
      "payable": false,
      "stateMutability": "nonpayable",
      "type": "constructor",
      "signature": "constructor"
    },
    {
      "anonymous": false,
      "inputs": [
        {
          "indexed": true,
          "name": "adr",
          "type": "address"
        },
        {
          "indexed": false,
          "name": "reviewer",
          "type": "string"
        },
        {
          "indexed": false,
          "name": "num",
          "type": "uint256"
        }
      ],
      "name": "notifyChecker",
      "type": "event",
      "signature": "0x6052b23ec14c054368e6061cdc3a2a6ef4ef49bd5577787246b6b3e0273f0515"
    },
    {
      "anonymous": false,
      "inputs": [
        {
          "indexed": true,
          "name": "userID",
          "type": "uint256"
        },
        {
          "indexed": false,
          "name": "num",
          "type": "uint256"
        }
      ],
      "name": "checkDone",
      "type": "event",
      "signature": "0x226c20c2d598f8c68251c8cfb1efaa52d762d282403f449e7e0cdfea9e84478a"
    },
    {
      "anonymous": false,
      "inputs": [
        {
          "indexed": false,
          "name": "_name",
          "type": "string"
        },
        {
          "name": "_adrs",
          "type": "address"
        }
      ],
      "name": "_addReviewer",
      "type": "function",
      "signature": "0xe7133cfe",
      "constant": false,
      "outputs": [],
      "payable": false,
      "stateMutability": "nonpayable"
    },
    {
      "anonymous": false,
      "inputs": [
        {
          "name": "_name",
          "type": "string"
        },
        {
          "name": "_adrs",
          "type": "address"
        }
      ],
      "name": "_addReviewee",
      "type": "function",
      "signature": "0xaf4fc465",
      "constant": false,
      "outputs": [],
      "payable": false,
      "stateMutability": "nonpayable"
    },
    {
      "anonymous": false,
      "inputs": [
        {
          "name": "_adrs",
          "type": "address"
        }
      ],
      "name": "_addChecker",
      "type": "function",
      "signature": "0xdecb1796",
      "constant": false,
      "outputs": [],
      "payable": false,
      "stateMutability": "nonpayable"
    },
    {
      "constant": false,
      "inputs": [
        {
          "name": "_reviewer",
          "type": "string"
        },
        {
          "name": "_reviewee",
          "type": "string"
        },
        {
          "name": "_score",
          "type": "uint256"
        },
        {
          "name": "_sentence",
          "type": "string"
        }
      ],
      "name": "_addReview",
      "outputs": [],
      "payable": false,
      "stateMutability": "nonpayable",
      "type": "function",
      "signature": "0x999ef22f"
    },
    {
      "constant": false,
      "inputs": [
        {
          "name": "_reviewer",
          "type": "string"
        },
        {
          "name": "_num",
          "type": "uint256"
        },
        {
          "name": "_judgement",
          "type": "bool"
        },
        {
          "name": "_adrs",
          "type": "address"
        }
      ],
      "name": "_checkReview",
      "outputs": [],
      "payable": false,
      "stateMutability": "nonpayable",
      "type": "function",
      "signature": "0x01f61347"
    },
    {
      "constant": false,
      "inputs": [
        {
          "name": "_reviewer",
          "type": "string"
        },
        {
          "name": "_num",
          "type": "uint256"
        }
      ],
      "name": "_addApprovedReview",
      "outputs": [],
      "payable": true,
      "stateMutability": "payable",
      "type": "function",
      "signature": "0x87df1d80"
    },
    {
      "constant": false,
      "inputs": [
        {
          "name": "_from",
          "type": "string"
        },
        {
          "name": "_to",
          "type": "string"
        },
        {
          "name": "_timeStamp",
          "type": "uint256"
        },
        {
          "name": "_sentence",
          "type": "string"
        }
      ],
      "name": "_addPeerReview",
      "outputs": [],
      "payable": false,
      "stateMutability": "nonpayable",
      "type": "function",
      "signature": "0xea1d3245"
    },
    {
      "constant": false,
      "inputs": [
        {
          "name": "_reviewer",
          "type": "string"
        },
        {
          "name": "_num",
          "type": "uint256"
        },
        {
          "name": "_judgement",
          "type": "bool"
        },
        {
          "name": "_adrs",
          "type": "address"
        }
      ],
      "name": "_checkReview",
      "outputs": [],
      "payable": false,
      "stateMutability": "nonpayable",
      "type": "function",
      "signature": "0x01f61347"
    },
    {
      "constant": false,
      "inputs": [
        {
          "name": "_to",
          "type": "address"
        }
      ],
      "name": "_send",
      "outputs": [],
      "payable": true,
      "stateMutability": "payable",
      "type": "function",
      "signature": "0x5f69067e"
    },
    {
      "constant": false,
      "inputs": [
        {
          "name": "_from",
          "type": "string"
        },
        {
          "name": "_to",
          "type": "string"
        },
        {
          "name": "_timeStamp",
          "type": "uint256"
        }
      ],
      "name": "_addPeerReview",
      "outputs": [],
      "payable": false,
      "stateMutability": "nonpayable",
      "type": "function",
      "signature": "0x33feaf2e"
    }
  ],
  "bytecode": "0x608060405234801561001057600080fd5b50600080819055506129f8806100276000396000f3fe60806040526004361061008e576000357c0100000000000000000000000000000000000000000000000000000000900463ffffffff16806301f61347146100935780630584fd8d1461019157806333feaf2e1461020c57806387df1d8014610375578063999ef22f1461043a578063af4fc4651461063a578063decb179614610722578063e7133cfe14610773575b600080fd5b34801561009f57600080fd5b5061018f600480360360808110156100b657600080fd5b81019080803590602001906401000000008111156100d357600080fd5b8201836020820111156100e557600080fd5b8035906020019184600183028401116401000000008311171561010757600080fd5b91908080601f016020809104026020016040519081016040528093929190818152602001838380828437600081840152601f19601f82011690508083019250505050505050919291929080359060200190929190803515159060200190929190803573ffffffffffffffffffffffffffffffffffffffff16906020019092919050505061085b565b005b34801561019d57600080fd5b506101ca600480360360208110156101b457600080fd5b8101908080359060200190929190505050610e20565b604051808273ffffffffffffffffffffffffffffffffffffffff1673ffffffffffffffffffffffffffffffffffffffff16815260200191505060405180910390f35b34801561021857600080fd5b506103736004803603606081101561022f57600080fd5b810190808035906020019064010000000081111561024c57600080fd5b82018360208201111561025e57600080fd5b8035906020019184600183028401116401000000008311171561028057600080fd5b91908080601f016020809104026020016040519081016040528093929190818152602001838380828437600081840152601f19601f820116905080830192505050505050509192919290803590602001906401000000008111156102e357600080fd5b8201836020820111156102f557600080fd5b8035906020019184600183028401116401000000008311171561031757600080fd5b91908080601f016020809104026020016040519081016040528093929190818152602001838380828437600081840152601f19601f82011690508083019250505050505050919291929080359060200190929190505050610e69565b005b6104386004803603604081101561038b57600080fd5b81019080803590602001906401000000008111156103a857600080fd5b8201836020820111156103ba57600080fd5b803590602001918460018302840111640100000000831117156103dc57600080fd5b91908080601f016020809104026020016040519081016040528093929190818152602001838380828437600081840152601f19601f82011690508083019250505050505050919291929080359060200190929190505050610fae565b005b34801561044657600080fd5b506106386004803603608081101561045d57600080fd5b810190808035906020019064010000000081111561047a57600080fd5b82018360208201111561048c57600080fd5b803590602001918460018302840111640100000000831117156104ae57600080fd5b91908080601f016020809104026020016040519081016040528093929190818152602001838380828437600081840152601f19601f8201169050808301925050505050505091929192908035906020019064010000000081111561051157600080fd5b82018360208201111561052357600080fd5b8035906020019184600183028401116401000000008311171561054557600080fd5b91908080601f016020809104026020016040519081016040528093929190818152602001838380828437600081840152601f19601f82011690508083019250505050505050919291929080359060200190929190803590602001906401000000008111156105b257600080fd5b8201836020820111156105c457600080fd5b803590602001918460018302840111640100000000831117156105e657600080fd5b91908080601f016020809104026020016040519081016040528093929190818152602001838380828437600081840152601f19601f820116905080830192505050505050509192919290505050611767565b005b34801561064657600080fd5b506107206004803603604081101561065d57600080fd5b810190808035906020019064010000000081111561067a57600080fd5b82018360208201111561068c57600080fd5b803590602001918460018302840111640100000000831117156106ae57600080fd5b91908080601f016020809104026020016040519081016040528093929190818152602001838380828437600081840152601f19601f820116905080830192505050505050509192919290803573ffffffffffffffffffffffffffffffffffffffff169060200190929190505050611d28565b005b34801561072e57600080fd5b506107716004803603602081101561074557600080fd5b81019080803573ffffffffffffffffffffffffffffffffffffffff169060200190929190505050611e47565b005b34801561077f57600080fd5b506108596004803603604081101561079657600080fd5b81019080803590602001906401000000008111156107b357600080fd5b8201836020820111156107c557600080fd5b803590602001918460018302840111640100000000831117156107e757600080fd5b91908080601f016020809104026020016040519081016040528093929190818152602001838380828437600081840152601f19601f820116905080830192505050505050509192919290803573ffffffffffffffffffffffffffffffffffffffff169060200190929190505050611f00565b005b60006009856040518082805190602001908083835b6020831015156108955780518252602082019150602081019050602083039250610870565b6001836020036101000a0380198251168184511680821785525050505050509050019150509081526020016040518091039020848154811015156108d557fe5b90600052602060002090600a02019050828160040160008473ffffffffffffffffffffffffffffffffffffffff1673ffffffffffffffffffffffffffffffffffffffff16815260200190815260200160002060006101000a81548160ff0219169083151502179055508060090160008154809291906001019190505550600381600901541415610e19576109676126ed565b81600501602060405190810160405290816000820160009054906101000a900473ffffffffffffffffffffffffffffffffffffffff1673ffffffffffffffffffffffffffffffffffffffff1673ffffffffffffffffffffffffffffffffffffffff168152505090506109d76126ed565b82600601602060405190810160405290816000820160009054906101000a900473ffffffffffffffffffffffffffffffffffffffff1673ffffffffffffffffffffffffffffffffffffffff1673ffffffffffffffffffffffffffffffffffffffff16815250509050610a476126ed565b83600701602060405190810160405290816000820160009054906101000a900473ffffffffffffffffffffffffffffffffffffffff1673ffffffffffffffffffffffffffffffffffffffff1673ffffffffffffffffffffffffffffffffffffffff16815250509050836004016000836000015173ffffffffffffffffffffffffffffffffffffffff1673ffffffffffffffffffffffffffffffffffffffff16815260200190815260200160002060009054906101000a900460ff161515846004016000856000015173ffffffffffffffffffffffffffffffffffffffff1673ffffffffffffffffffffffffffffffffffffffff16815260200190815260200160002060009054906101000a900460ff1615151415610bd257836004016000846000015173ffffffffffffffffffffffffffffffffffffffff1673ffffffffffffffffffffffffffffffffffffffff16815260200190815260200160002060009054906101000a900460ff168460080160006101000a81548160ff021916908315150217905550610c41565b836004016000826000015173ffffffffffffffffffffffffffffffffffffffff1673ffffffffffffffffffffffffffffffffffffffff16815260200190815260200160002060009054906101000a900460ff168460080160006101000a81548160ff0219169083151502179055505b610c49612717565b6006896040518082805190602001908083835b602083101515610c815780518252602082019150602081019050602083039250610c5c565b6001836020036101000a038019825116818451168082178552505050505050905001915050908152602001604051809103902060a06040519081016040529081600082018054600181600116156101000203166002900480601f016020809104026020016040519081016040528092919081815260200182805460018160011615610100020316600290048015610d595780601f10610d2e57610100808354040283529160200191610d59565b820191906000526020600020905b815481529060010190602001808311610d3c57829003601f168201915b505050505081526020016001820160009054906101000a900473ffffffffffffffffffffffffffffffffffffffff1673ffffffffffffffffffffffffffffffffffffffff1673ffffffffffffffffffffffffffffffffffffffff1681526020016002820154815260200160038201548152602001600482015481525050905080604001517f226c20c2d598f8c68251c8cfb1efaa52d762d282403f449e7e0cdfea9e84478a896040518082815260200191505060405180910390a2505050505b5050505050565b600581815481101515610e2f57fe5b906000526020600020016000915090508060000160009054906101000a900473ffffffffffffffffffffffffffffffffffffffff16905081565b600a836040518082805190602001908083835b602083101515610ea15780518252602082019150602081019050602083039250610e7c565b6001836020036101000a0380198251168184511680821785525050505050509050019150509081526020016040518091039020829080600181540180825580915050906001820390600052602060002001600090919290919091509080519060200190610f0f92919061275d565b505060016004846040518082805190602001908083835b602083101515610f4b5780518252602082019150602081019050602083039250610f26565b6001836020036101000a038019825116818451168082178552505050505050905001915050908152602001604051809103902060006101000a81548160ff02191690831515021790555080600254141515610fa957610fa8612093565b5b505050565b60006009836040518082805190602001908083835b602083101515610fe85780518252602082019150602081019050602083039250610fc3565b6001836020036101000a03801982511681845116808217855250505050505090500191505090815260200160405180910390208281548110151561102857fe5b90600052602060002090600a020190506110406127dd565b60078260010160405180828054600181600116156101000203166002900480156110a15780601f1061107f5761010080835404028352918201916110a1565b820191906000526020600020905b81548152906001019060200180831161108d575b5050915050908152602001604051809103902060606040519081016040529081600082018054600181600116156101000203166002900480601f0160208091040260200160405190810160405280929190818152602001828054600181600116156101000203166002900480156111595780601f1061112e57610100808354040283529160200191611159565b820191906000526020600020905b81548152906001019060200180831161113c57829003601f168201915b505050505081526020016001820160009054906101000a900473ffffffffffffffffffffffffffffffffffffffff1673ffffffffffffffffffffffffffffffffffffffff1673ffffffffffffffffffffffffffffffffffffffff16815260200160028201548152505090506000600882600001516040518082805190602001908083835b60208310151561120257805182526020820191506020810190506020830392506111dd565b6001836020036101000a03801982511681845116808217855250505050505090500191505090815260200160405180910390208054905090506000600182018460020154838560400151020181151561125757fe5b0490508083604001818152505060088460010160405180828054600181600116156101000203166002900480156112c55780601f106112a35761010080835404028352918201916112c5565b820191906000526020600020905b8154815290600101906020018083116112b1575b50509150509081526020016040518091039020849080600181540180825580915050906001820390600052602060002090600a0201600090919290919091506000820181600001908054600181600116156101000203166002900461132b929190612815565b5060018201816001019080546001816001161561010002031660029004611353929190612815565b506002820154816002015560038201816003019080546001816001161561010002031660029004611385929190612815565b5060058201816005016000820160009054906101000a900473ffffffffffffffffffffffffffffffffffffffff168160000160006101000a81548173ffffffffffffffffffffffffffffffffffffffff021916908373ffffffffffffffffffffffffffffffffffffffff160217905550505060068201816006016000820160009054906101000a900473ffffffffffffffffffffffffffffffffffffffff168160000160006101000a81548173ffffffffffffffffffffffffffffffffffffffff021916908373ffffffffffffffffffffffffffffffffffffffff160217905550505060078201816007016000820160009054906101000a900473ffffffffffffffffffffffffffffffffffffffff168160000160006101000a81548173ffffffffffffffffffffffffffffffffffffffff021916908373ffffffffffffffffffffffffffffffffffffffff16021790555050506008820160009054906101000a900460ff168160080160006101000a81548160ff021916908315150217905550600982015481600901555050508360080160009054906101000a900460ff1615158460040160008660050160000160009054906101000a900473ffffffffffffffffffffffffffffffffffffffff1673ffffffffffffffffffffffffffffffffffffffff1673ffffffffffffffffffffffffffffffffffffffff16815260200190815260200160002060009054906101000a900460ff16151514156115d7576115d68460050160000160009054906101000a900473ffffffffffffffffffffffffffffffffffffffff16346124de565b5b8360080160009054906101000a900460ff1615158460040160008660060160000160009054906101000a900473ffffffffffffffffffffffffffffffffffffffff1673ffffffffffffffffffffffffffffffffffffffff1673ffffffffffffffffffffffffffffffffffffffff16815260200190815260200160002060009054906101000a900460ff161515141561169b5761169a8460060160000160009054906101000a900473ffffffffffffffffffffffffffffffffffffffff16346124de565b5b8360080160009054906101000a900460ff1615158460040160008660070160000160009054906101000a900473ffffffffffffffffffffffffffffffffffffffff1673ffffffffffffffffffffffffffffffffffffffff1673ffffffffffffffffffffffffffffffffffffffff16815260200190815260200160002060009054906101000a900460ff161515141561175f5761175e8460070160000160009054906101000a900473ffffffffffffffffffffffffffffffffffffffff16346124de565b5b505050505050565b60006009856040518082805190602001908083835b6020831015156117a1578051825260208201915060208101905060208303925061177c565b6001836020036101000a038019825116818451168082178552505050505050905001915050908152602001604051809103902080549050905060606117e583612529565b90506117ef61289c565b6101206040519081016040528088815260200187815260200186815260200185815260200183600081518110151561182357fe5b90602001906020020151815260200183600181518110151561184157fe5b90602001906020020151815260200183600281518110151561185f57fe5b906020019060200201518152602001600015158152602001600081525090506009876040518082805190602001908083835b6020831015156118b65780518252602082019150602081019050602083039250611891565b6001836020036101000a0380198251168184511680821785525050505050509050019150509081526020016040518091039020819080600181540180825580915050906001820390600052602060002090600a02016000909192909190915060008201518160000190805190602001906119319291906128fd565b50602082015181600101908051906020019061194e9291906128fd565b506040820151816002015560608201518160030190805190602001906119759291906128fd565b5060808201518160050160008201518160000160006101000a81548173ffffffffffffffffffffffffffffffffffffffff021916908373ffffffffffffffffffffffffffffffffffffffff160217905550505060a08201518160060160008201518160000160006101000a81548173ffffffffffffffffffffffffffffffffffffffff021916908373ffffffffffffffffffffffffffffffffffffffff160217905550505060c08201518160070160008201518160000160006101000a81548173ffffffffffffffffffffffffffffffffffffffff021916908373ffffffffffffffffffffffffffffffffffffffff160217905550505060e08201518160080160006101000a81548160ff0219169083151502179055506101008201518160090155505050816000815181101515611aa957fe5b906020019060200201516000015173ffffffffffffffffffffffffffffffffffffffff167f6052b23ec14c054368e6061cdc3a2a6ef4ef49bd5577787246b6b3e0273f051588856040518080602001838152602001828103825284818151815260200191508051906020019080838360005b83811015611b36578082015181840152602081019050611b1b565b50505050905090810190601f168015611b635780820380516001836020036101000a031916815260200191505b50935050505060405180910390a2816001815181101515611b8057fe5b906020019060200201516000015173ffffffffffffffffffffffffffffffffffffffff167f6052b23ec14c054368e6061cdc3a2a6ef4ef49bd5577787246b6b3e0273f051588856040518080602001838152602001828103825284818151815260200191508051906020019080838360005b83811015611c0d578082015181840152602081019050611bf2565b50505050905090810190601f168015611c3a5780820380516001836020036101000a031916815260200191505b50935050505060405180910390a2816002815181101515611c5757fe5b906020019060200201516000015173ffffffffffffffffffffffffffffffffffffffff167f6052b23ec14c054368e6061cdc3a2a6ef4ef49bd5577787246b6b3e0273f051588856040518080602001838152602001828103825284818151815260200191508051906020019080838360005b83811015611ce4578082015181840152602081019050611cc9565b50505050905090810190601f168015611d115780820380516001836020036101000a031916815260200191505b50935050505060405180910390a250505050505050565b611d306127dd565b6060604051908101604052808481526020018373ffffffffffffffffffffffffffffffffffffffff16815260200160008152509050806007846040518082805190602001908083835b602083101515611d9e5780518252602082019150602081019050602083039250611d79565b6001836020036101000a03801982511681845116808217855250505050505090500191505090815260200160405180910390206000820151816000019080519060200190611ded9291906128fd565b5060208201518160010160006101000a81548173ffffffffffffffffffffffffffffffffffffffff021916908373ffffffffffffffffffffffffffffffffffffffff16021790555060408201518160020155905050505050565b611e4f6126ed565b6020604051908101604052808373ffffffffffffffffffffffffffffffffffffffff168152509050600080815480929190600101919050555060058190806001815401808255809150509060018203906000526020600020016000909192909190915060008201518160000160006101000a81548173ffffffffffffffffffffffffffffffffffffffff021916908373ffffffffffffffffffffffffffffffffffffffff1602179055505050505050565b611f08612717565b60a0604051908101604052808481526020018373ffffffffffffffffffffffffffffffffffffffff168152602001600154815260200160648152602001600081525090506003839080600181540180825580915050906001820390600052602060002001600090919290919091509080519060200190611f8992919061275d565b5050806006846040518082805190602001908083835b602083101515611fc45780518252602082019150602081019050602083039250611f9f565b6001836020036101000a038019825116818451168082178552505050505050905001915050908152602001604051809103902060008201518160000190805190602001906120139291906128fd565b5060208201518160010160006101000a81548173ffffffffffffffffffffffffffffffffffffffff021916908373ffffffffffffffffffffffffffffffffffffffff160217905550604082015181600201556060820151816003015560808201518160040155905050600160008154809291906001019190505550505050565b60008090505b600380549050811015612415576000151560046003838154811015156120bb57fe5b9060005260206000200160405180828054600181600116156101000203166002900480156121205780601f106120fe576101008083540402835291820191612120565b820191906000526020600020905b81548152906001019060200180831161210c575b5050915050908152602001604051809103902060009054906101000a900460ff161515141561214e57612408565b6060600a60038381548110151561216157fe5b9060005260206000200160405180828054600181600116156101000203166002900480156121c65780601f106121a45761010080835404028352918201916121c6565b820191906000526020600020905b8154815290600101906020018083116121b2575b50509150509081526020016040518091039020805480602002602001604051908101604052809291908181526020016000905b828210156122b5578382906000526020600020018054600181600116156101000203166002900480601f0160208091040260200160405190810160405280929190818152602001828054600181600116156101000203166002900480156122a15780601f10612276576101008083540402835291602001916122a1565b820191906000526020600020905b81548152906001019060200180831161228457829003601f168201915b5050505050815260200190600101906121f9565b50505050905060008090505b8151811015612405576000600683838151811015156122dc57fe5b906020019060200201516040518082805190602001908083835b60208310151561231b57805182526020820191506020810190506020830392506122f6565b6001836020036101000a038019825116818451168082178552505050505050905001915050908152602001604051809103902090508251600660038681548110151561236357fe5b9060005260206000200160405180828054600181600116156101000203166002900480156123c85780601f106123a65761010080835404028352918201916123c8565b820191906000526020600020905b8154815290600101906020018083116123b4575b50509150509081526020016040518091039020600301548115156123e857fe5b0481600401540181600401819055505080806001019150506122c1565b50505b8080600101915050612099565b5060008090505b6003805490508110156124db576000600660038381548110151561243c57fe5b9060005260206000200160405180828054600181600116156101000203166002900480156124a15780601f1061247f5761010080835404028352918201916124a1565b820191906000526020600020905b81548152906001019060200180831161248d575b505091505090815260200160405180910390209050806004015481600301819055506000816004018190555050808060010191505061241c565b50565b8173ffffffffffffffffffffffffffffffffffffffff166108fc829081150290604051600060405180830381858888f19350505050158015612524573d6000803e3d6000fd5b505050565b606080600360405190808252806020026020018201604052801561256757816020015b61255461297d565b81526020019060019003908161254c5790505b50905060008090505b60038110156126455760006125848561264f565b905061258e6126ed565b600560005484840181151561259f57fe5b068154811015156125ac57fe5b90600052602060002001602060405190810160405290816000820160009054906101000a900473ffffffffffffffffffffffffffffffffffffffff1673ffffffffffffffffffffffffffffffffffffffff1673ffffffffffffffffffffffffffffffffffffffff1681525050905080848481518110151561262957fe5b9060200190602002018190525050508080600101915050612570565b5080915050919050565b600080826040516020018080602001828103825283818151815260200191508051906020019080838360005b8381101561269657808201518184015260208101905061267b565b50505050905090810190601f1680156126c35780820380516001836020036101000a031916815260200191505b50925050506040516020818303038152906040528051906020012060019004905080915050919050565b602060405190810160405280600073ffffffffffffffffffffffffffffffffffffffff1681525090565b60a06040519081016040528060608152602001600073ffffffffffffffffffffffffffffffffffffffff1681526020016000815260200160008152602001600081525090565b828054600181600116156101000203166002900490600052602060002090601f016020900481019282601f1061279e57805160ff19168380011785556127cc565b828001600101855582156127cc579182015b828111156127cb5782518255916020019190600101906127b0565b5b5090506127d991906129a7565b5090565b60606040519081016040528060608152602001600073ffffffffffffffffffffffffffffffffffffffff168152602001600081525090565b828054600181600116156101000203166002900490600052602060002090601f016020900481019282601f1061284e578054855561288b565b8280016001018555821561288b57600052602060002091601f016020900482015b8281111561288a57825482559160010191906001019061286f565b5b50905061289891906129a7565b5090565b61012060405190810160405280606081526020016060815260200160008152602001606081526020016128cd61297d565b81526020016128da61297d565b81526020016128e761297d565b8152602001600015158152602001600081525090565b828054600181600116156101000203166002900490600052602060002090601f016020900481019282601f1061293e57805160ff191683800117855561296c565b8280016001018555821561296c579182015b8281111561296b578251825591602001919060010190612950565b5b50905061297991906129a7565b5090565b602060405190810160405280600073ffffffffffffffffffffffffffffffffffffffff1681525090565b6129c991905b808211156129c55760008160009055506001016129ad565b5090565b9056fea165627a7a723058209a7f0ce7defd467f1b54407a173d8f3b2cde3d5768f1f02c6adedf2623d0fd9e0029",
  "source": "pragma solidity  ^0.5.0;\n\ncontract Main {\n\n    uint constant numOfCheckers = 3;\n\n    uint numOfAllCheckers;\n\n    uint numOfReviewers;\n\n    // 11/17 -> 1117\n    uint lastCalcTimeStamp;\n\n  struct Review {\n      string reviewer;\n      string reviewee;\n      uint score;\n      string sentence;\n      mapping(address => bool) checkerToApproval;\n      Checker checker1;\n      Checker checker2;\n      Checker checker3;\n      bool isApproved;\n      uint checkCnt;\n  }\n\n  struct Reviewer {\n    string name;\n    address adrs;\n    uint id;\n    // initiated with 100.\n    uint score;\n    uint newScore;\n  }\n\n  struct Reviewee {\n    string name;\n    address adrs;\n    uint score;\n  }\n\n  struct Checker {\n    address payable adrs;\n  }\n\n  string[] private reviewers;\n\n  mapping(string => bool) reviewerHasPR;\n\n  Checker[] public  checkers;\n\n  mapping (string => Reviewer) nameToReviewer;\n\n  mapping(string => Reviewee) nameToReviewee;\n\n  mapping(string => Review[]) revieweeToReview;\n\n  mapping(string => Review[]) reviewerToReview;\n\n  mapping(string => string[]) graph;\n\n  constructor() public {\n    numOfAllCheckers = 0;\n  }\n\n  event notifyChecker(address indexed adr, string reviewer, uint num);\n\n  event checkDone(uint indexed userID, uint num);\n\n  function _addReviewer(string memory _name, address _adrs) public {\n    Reviewer memory reviewer = Reviewer(_name, _adrs, numOfReviewers, 100, 0);\n    reviewers.push(_name);\n    nameToReviewer[_name] = reviewer;\n    numOfReviewers++;\n  }\n\n  function _addReviewee(string memory _name, address _adrs) public {\n    Reviewee memory reviewee = Reviewee(_name,_adrs, 0);\n    nameToReviewee[_name] = reviewee;\n  }\n\n  function _addChecker(address payable _adrs) public {\n    Checker memory checker = Checker(_adrs);\n    numOfAllCheckers++;\n    checkers.push(checker);\n  }\n\n  function _generateRandomNumber(string memory _str) private pure returns (uint) {\n      uint rand = uint(keccak256(abi.encode(_str)));\n      return rand;\n  }\n\n  function _addReview(string memory _reviewer, string memory _reviewee, uint _score, string memory _sentence) public {\n    uint num = reviewerToReview[_reviewer].length;\n    Checker[] memory selectedCheckers = _selectCheckers(_sentence);\n    Review memory review = Review(_reviewer, _reviewee, _score, _sentence, selectedCheckers[0],\n                                                        selectedCheckers[1], selectedCheckers[2],false, 0);\n    reviewerToReview[_reviewer].push(review);\n    emit notifyChecker(selectedCheckers[0].adrs, _reviewer, num);\n    emit notifyChecker(selectedCheckers[1].adrs, _reviewer, num);\n    emit notifyChecker(selectedCheckers[2].adrs, _reviewer, num);\n  }\n\n  function _selectCheckers(string memory _sentence) private view returns (Checker[] memory) {\n    Checker[] memory selectedCheckers = new Checker[](3);\n    for(uint i = 0; i < 3; i++) {\n      uint rand = _generateRandomNumber(_sentence);\n      Checker memory checker = checkers[(rand+i)%numOfAllCheckers];\n      selectedCheckers[i] = checker;\n    }\n    return selectedCheckers;\n  }\n\n  function _checkReview(string memory _reviewer, uint _num, bool _judgement, address _adrs) public {\n    Review storage review = reviewerToReview[_reviewer][_num];\n    review.checkerToApproval[_adrs] = _judgement;\n    review.checkCnt++;\n    if(review.checkCnt == numOfCheckers){\n      Checker memory checker1 = review.checker1;\n      Checker memory checker2 = review.checker2;\n      Checker memory checker3 = review.checker3;\n      if(review.checkerToApproval[checker1.adrs] == review.checkerToApproval[checker2.adrs]) review.isApproved = review.checkerToApproval[checker1.adrs];\n      else review.isApproved = review.checkerToApproval[checker3.adrs];\n      Reviewer memory reviewer = nameToReviewer[_reviewer];\n      emit checkDone(reviewer.id, _num);\n    }\n  }\n\n  function _addApprovedReview(string memory _reviewer, uint _num) public payable {\n    Review storage review = reviewerToReview[_reviewer][_num];\n    Reviewee memory reviewee = nameToReviewee[review.reviewee];\n    uint numOfReview = revieweeToReview[reviewee.name].length;\n    uint newScore = (reviewee.score * numOfReview + review.score) / (numOfReview + 1);\n    reviewee.score = newScore;\n    revieweeToReview[review.reviewee].push(review);\n    if(review.checkerToApproval[review.checker1.adrs] == review.isApproved) _send(review.checker1.adrs, msg.value);\n    if(review.checkerToApproval[review.checker2.adrs] == review.isApproved) _send(review.checker2.adrs, msg.value);\n    if(review.checkerToApproval[review.checker3.adrs] == review.isApproved) _send(review.checker3.adrs, msg.value);\n  }\n\n  function _send(address payable _to, uint amount) private {\n    _to.transfer(amount);\n  }\n\n  function _addPeerReview(string memory _from, string memory _to, uint _timeStamp) public {\n    graph[_from].push(_to);\n    reviewerHasPR[_from] = true;\n    if(lastCalcTimeStamp != _timeStamp){\n      _updateScore();\n    }\n  }\n\n  function _updateScore() private {\n    for(uint i = 0; i < reviewers.length; i++){\n      if(reviewerHasPR[reviewers[i]] == false) continue;\n      string[] memory rs = graph[reviewers[i]];\n      for(uint j = 0; j<rs.length; j++){\n        Reviewer storage r2 = nameToReviewer[rs[j]];\n        r2.newScore = r2.newScore + nameToReviewer[reviewers[i]].score / rs.length;\n      }\n    }\n    for(uint i = 0; i < reviewers.length; i++){\n      Reviewer storage reviewer = nameToReviewer[reviewers[i]];\n      reviewer.score = reviewer.newScore;\n      reviewer.newScore = 0;\n    }\n  }\n}",
  "sourcePath": "/Users/admin/Desktop/Reviews/contracts/Main.sol",
  "compiler": {
    "name": "solc",
    "version": "0.5.0+commit.1d4f565a.Emscripten.clang"
  },
  "schemaVersion": "3.0.6",
  "updatedAt": "2020-01-18T11:43:15.934Z",
  "devdoc": {
    "methods": {}
  },
  "userdoc": {
    "methods": {}
  }
}