{
  "contractName": "Main",
  "abi": [
    {
      "constant": true,
      "inputs": [
        {
          "name": "",
          "type": "uint256"
        }
      ],
      "name": "shops",
      "outputs": [
        {
          "name": "",
          "type": "string"
        }
      ],
      "payable": false,
      "stateMutability": "view",
      "type": "function",
      "signature": "0x713aca74"
    },
    {
      "inputs": [],
      "payable": false,
      "stateMutability": "nonpayable",
      "type": "constructor",
      "signature": "constructor"
    },
    {
      "anonymous": false,
      "inputs": [
        {
          "indexed": false,
          "name": "comment",
          "type": "string"
        }
      ],
      "name": "Check",
      "type": "event",
      "signature": "0x764c2ff349167663385ec20cf2976b7f7fc44a63d43f39484b2324807396a2c4"
    },
    {
      "constant": false,
      "inputs": [
        {
          "name": "name",
          "type": "string"
        }
      ],
      "name": "addShop",
      "outputs": [],
      "payable": false,
      "stateMutability": "nonpayable",
      "type": "function",
      "signature": "0x0c1fa2bc"
    },
    {
      "constant": true,
      "inputs": [
        {
          "name": "name",
          "type": "string"
        }
      ],
      "name": "getShop",
      "outputs": [
        {
          "name": "",
          "type": "uint256"
        },
        {
          "name": "",
          "type": "string"
        },
        {
          "name": "",
          "type": "address"
        }
      ],
      "payable": false,
      "stateMutability": "view",
      "type": "function",
      "signature": "0xfa28dc0b"
    },
    {
      "constant": true,
      "inputs": [],
      "name": "getShopSize",
      "outputs": [
        {
          "name": "",
          "type": "uint256"
        }
      ],
      "payable": false,
      "stateMutability": "view",
      "type": "function",
      "signature": "0xf52d106d"
    },
    {
      "constant": false,
      "inputs": [
        {
          "name": "name",
          "type": "string"
        }
      ],
      "name": "addReviewer",
      "outputs": [],
      "payable": false,
      "stateMutability": "nonpayable",
      "type": "function",
      "signature": "0xa9ccf5c4"
    },
    {
      "constant": true,
      "inputs": [
        {
          "name": "a",
          "type": "address"
        }
      ],
      "name": "getReviewer",
      "outputs": [
        {
          "name": "",
          "type": "uint256"
        },
        {
          "name": "",
          "type": "string"
        },
        {
          "name": "",
          "type": "address"
        }
      ],
      "payable": false,
      "stateMutability": "view",
      "type": "function",
      "signature": "0x8979d901"
    },
    {
      "constant": true,
      "inputs": [],
      "name": "getReviewerSize",
      "outputs": [
        {
          "name": "",
          "type": "uint256"
        }
      ],
      "payable": false,
      "stateMutability": "view",
      "type": "function",
      "signature": "0xe2f1868b"
    },
    {
      "constant": false,
      "inputs": [
        {
          "name": "reviewee",
          "type": "string"
        },
        {
          "name": "score",
          "type": "uint256"
        },
        {
          "name": "comment",
          "type": "string"
        }
      ],
      "name": "addReview",
      "outputs": [],
      "payable": false,
      "stateMutability": "nonpayable",
      "type": "function",
      "signature": "0xa65ef9f0"
    },
    {
      "constant": false,
      "inputs": [
        {
          "name": "str",
          "type": "string"
        }
      ],
      "name": "checkReview",
      "outputs": [],
      "payable": false,
      "stateMutability": "nonpayable",
      "type": "function",
      "signature": "0x591a7eb1"
    },
    {
      "constant": true,
      "inputs": [
        {
          "name": "s",
          "type": "string"
        },
        {
          "name": "k",
          "type": "uint256"
        }
      ],
      "name": "updateShopScore",
      "outputs": [],
      "payable": false,
      "stateMutability": "view",
      "type": "function",
      "signature": "0xe2407598"
    },
    {
      "constant": false,
      "inputs": [
        {
          "name": "t",
          "type": "address"
        }
      ],
      "name": "addPeerReviews",
      "outputs": [],
      "payable": false,
      "stateMutability": "nonpayable",
      "type": "function",
      "signature": "0xc5131ae7"
    },
    {
      "constant": true,
      "inputs": [
        {
          "name": "i",
          "type": "uint256"
        }
      ],
      "name": "getPeerReviews",
      "outputs": [
        {
          "name": "",
          "type": "uint256[]"
        }
      ],
      "payable": false,
      "stateMutability": "view",
      "type": "function",
      "signature": "0xea41608a"
    },
    {
      "constant": true,
      "inputs": [
        {
          "name": "r",
          "type": "string"
        },
        {
          "name": "k",
          "type": "uint256"
        }
      ],
      "name": "updateReviewerScore",
      "outputs": [],
      "payable": false,
      "stateMutability": "view",
      "type": "function",
      "signature": "0x80498cbe"
    }
  ],
  "bytecode": "0x608060405234801561001057600080fd5b50600080819055506000600181905550611f018061002f6000396000f3fe6080604052600436106100c5576000357c0100000000000000000000000000000000000000000000000000000000900463ffffffff1680630c1fa2bc146100ca578063591a7eb114610192578063713aca741461025a57806380498cbe1461030e5780638979d901146103e0578063a65ef9f0146104e4578063a9ccf5c41461064d578063c5131ae714610715578063e240759814610766578063e2f1868b14610838578063ea41608a14610863578063f52d106d146108f3578063fa28dc0b1461091e575b600080fd5b3480156100d657600080fd5b50610190600480360360208110156100ed57600080fd5b810190808035906020019064010000000081111561010a57600080fd5b82018360208201111561011c57600080fd5b8035906020019184600183028401116401000000008311171561013e57600080fd5b91908080601f016020809104026020016040519081016040528093929190818152602001838380828437600081840152601f19601f820116905080830192505050505050509192919290505050610a99565b005b34801561019e57600080fd5b50610258600480360360208110156101b557600080fd5b81019080803590602001906401000000008111156101d257600080fd5b8201836020820111156101e457600080fd5b8035906020019184600183028401116401000000008311171561020657600080fd5b91908080601f016020809104026020016040519081016040528093929190818152602001838380828437600081840152601f19601f820116905080830192505050505050509192919290505050610c07565b005b34801561026657600080fd5b506102936004803603602081101561027d57600080fd5b8101908080359060200190929190505050610ca6565b6040518080602001828103825283818151815260200191508051906020019080838360005b838110156102d35780820151818401526020810190506102b8565b50505050905090810190601f1680156103005780820380516001836020036101000a031916815260200191505b509250505060405180910390f35b34801561031a57600080fd5b506103de6004803603604081101561033157600080fd5b810190808035906020019064010000000081111561034e57600080fd5b82018360208201111561036057600080fd5b8035906020019184600183028401116401000000008311171561038257600080fd5b91908080601f016020809104026020016040519081016040528093929190818152602001838380828437600081840152601f19601f82011690508083019250505050505050919291929080359060200190929190505050610d61565b005b3480156103ec57600080fd5b5061042f6004803603602081101561040357600080fd5b81019080803573ffffffffffffffffffffffffffffffffffffffff169060200190929190505050610f6c565b60405180848152602001806020018373ffffffffffffffffffffffffffffffffffffffff1673ffffffffffffffffffffffffffffffffffffffff168152602001828103825284818151815260200191508051906020019080838360005b838110156104a757808201518184015260208101905061048c565b50505050905090810190601f1680156104d45780820380516001836020036101000a031916815260200191505b5094505050505060405180910390f35b3480156104f057600080fd5b5061064b6004803603606081101561050757600080fd5b810190808035906020019064010000000081111561052457600080fd5b82018360208201111561053657600080fd5b8035906020019184600183028401116401000000008311171561055857600080fd5b91908080601f016020809104026020016040519081016040528093929190818152602001838380828437600081840152601f19601f82011690508083019250505050505050919291929080359060200190929190803590602001906401000000008111156105c557600080fd5b8201836020820111156105d757600080fd5b803590602001918460018302840111640100000000831117156105f957600080fd5b91908080601f016020809104026020016040519081016040528093929190818152602001838380828437600081840152601f19601f8201169050808301925050505050505091929192905050506110fd565b005b34801561065957600080fd5b506107136004803603602081101561067057600080fd5b810190808035906020019064010000000081111561068d57600080fd5b82018360208201111561069f57600080fd5b803590602001918460018302840111640100000000831117156106c157600080fd5b91908080601f016020809104026020016040519081016040528093929190818152602001838380828437600081840152601f19601f8201169050808301925050505050505091929192905050506113ad565b005b34801561072157600080fd5b506107646004803603602081101561073857600080fd5b81019080803573ffffffffffffffffffffffffffffffffffffffff1690602001909291905050506115da565b005b34801561077257600080fd5b506108366004803603604081101561078957600080fd5b81019080803590602001906401000000008111156107a657600080fd5b8201836020820111156107b857600080fd5b803590602001918460018302840111640100000000831117156107da57600080fd5b91908080601f016020809104026020016040519081016040528093929190818152602001838380828437600081840152601f19601f820116905080830192505050505050509192919290803590602001909291905050506118fd565b005b34801561084457600080fd5b5061084d611a95565b6040518082815260200191505060405180910390f35b34801561086f57600080fd5b5061089c6004803603602081101561088657600080fd5b8101908080359060200190929190505050611a9f565b6040518080602001828103825283818151815260200191508051906020019060200280838360005b838110156108df5780820151818401526020810190506108c4565b505050509050019250505060405180910390f35b3480156108ff57600080fd5b50610908611b0a565b6040518082815260200191505060405180910390f35b34801561092a57600080fd5b506109e46004803603602081101561094157600080fd5b810190808035906020019064010000000081111561095e57600080fd5b82018360208201111561097057600080fd5b8035906020019184600183028401116401000000008311171561099257600080fd5b91908080601f016020809104026020016040519081016040528093929190818152602001838380828437600081840152601f19601f820116905080830192505050505050509192919290505050611b13565b60405180848152602001806020018373ffffffffffffffffffffffffffffffffffffffff1673ffffffffffffffffffffffffffffffffffffffff168152602001828103825284818151815260200191508051906020019080838360005b83811015610a5c578082015181840152602081019050610a41565b50505050905090810190601f168015610a895780820380516001836020036101000a031916815260200191505b5094505050505060405180910390f35b6003819080600181540180825580915050906001820390600052602060002001600090919290919091509080519060200190610ad6929190611cbc565b5050610ae0611d3c565b606060405190810160405280600081526020018381526020013373ffffffffffffffffffffffffffffffffffffffff168152509050806002836040518082805190602001908083835b602083101515610b4e5780518252602082019150602081019050602083039250610b29565b6001836020036101000a0380198251168184511680821785525050505050509050019150509081526020016040518091039020600082015181600001556020820151816001019080519060200190610ba7929190611d74565b5060408201518160020160006101000a81548173ffffffffffffffffffffffffffffffffffffffff021916908373ffffffffffffffffffffffffffffffffffffffff16021790555090505060008081548092919060010191905055505050565b7f764c2ff349167663385ec20cf2976b7f7fc44a63d43f39484b2324807396a2c4816040518080602001828103825283818151815260200191508051906020019080838360005b83811015610c69578082015181840152602081019050610c4e565b50505050905090810190601f168015610c965780820380516001836020036101000a031916815260200191505b509250505060405180910390a150565b600381815481101515610cb557fe5b906000526020600020016000915090508054600181600116156101000203166002900480601f016020809104026020016040519081016040528092919081815260200182805460018160011615610100020316600290048015610d595780601f10610d2e57610100808354040283529160200191610d59565b820191906000526020600020905b815481529060010190602001808311610d3c57829003601f168201915b505050505081565b60006005836040518082805190602001908083835b602083101515610d9b5780518252602082019150602081019050602083039250610d76565b6001836020036101000a038019825116818451168082178552505050505050905001915050908152602001604051809103902060009054906101000a900473ffffffffffffffffffffffffffffffffffffffff169050610df9611df4565b600460008373ffffffffffffffffffffffffffffffffffffffff1673ffffffffffffffffffffffffffffffffffffffff16815260200190815260200160002060a0604051908101604052908160008201548152602001600182018054600181600116156101000203166002900480601f016020809104026020016040519081016040528092919081815260200182805460018160011615610100020316600290048015610ee75780601f10610ebc57610100808354040283529160200191610ee7565b820191906000526020600020905b815481529060010190602001808311610eca57829003601f168201915b505050505081526020016002820160009054906101000a900473ffffffffffffffffffffffffffffffffffffffff1673ffffffffffffffffffffffffffffffffffffffff1673ffffffffffffffffffffffffffffffffffffffff1681526020016003820154815260200160048201548152505090508281600001818152505050505050565b600060606000610f7a611df4565b600460008673ffffffffffffffffffffffffffffffffffffffff1673ffffffffffffffffffffffffffffffffffffffff16815260200190815260200160002060a0604051908101604052908160008201548152602001600182018054600181600116156101000203166002900480601f0160208091040260200160405190810160405280929190818152602001828054600181600116156101000203166002900480156110685780601f1061103d57610100808354040283529160200191611068565b820191906000526020600020905b81548152906001019060200180831161104b57829003601f168201915b505050505081526020016002820160009054906101000a900473ffffffffffffffffffffffffffffffffffffffff1673ffffffffffffffffffffffffffffffffffffffff1673ffffffffffffffffffffffffffffffffffffffff168152602001600382015481526020016004820154815250509050806000015181602001518260400151819150935093509350509193909250565b61110681610c07565b61110e611df4565b600460003373ffffffffffffffffffffffffffffffffffffffff1673ffffffffffffffffffffffffffffffffffffffff16815260200190815260200160002060a0604051908101604052908160008201548152602001600182018054600181600116156101000203166002900480601f0160208091040260200160405190810160405280929190818152602001828054600181600116156101000203166002900480156111fc5780601f106111d1576101008083540402835291602001916111fc565b820191906000526020600020905b8154815290600101906020018083116111df57829003601f168201915b505050505081526020016002820160009054906101000a900473ffffffffffffffffffffffffffffffffffffffff1673ffffffffffffffffffffffffffffffffffffffff1673ffffffffffffffffffffffffffffffffffffffff168152602001600382015481526020016004820154815250509050611279611e3a565b608060405190810160405280858152602001868152602001836020015181526020018481525090506007856040518082805190602001908083835b6020831015156112d957805182526020820191506020810190506020830392506112b4565b6001836020036101000a0380198251168184511680821785525050505050509050019150509081526020016040518091039020819080600181540180825580915050906001820390600052602060002090600402016000909192909190915060008201518160000155602082015181600101908051906020019061135e929190611d74565b50604082015181600201908051906020019061137b929190611d74565b506060820151816003019080519060200190611398929190611d74565b505050506113a685856118fd565b5050505050565b6113b5611df4565b60a060405190810160405280600081526020018381526020013373ffffffffffffffffffffffffffffffffffffffff16815260200160015481526020016000815250905080600460003373ffffffffffffffffffffffffffffffffffffffff1673ffffffffffffffffffffffffffffffffffffffff16815260200190815260200160002060008201518160000155602082015181600101908051906020019061145f929190611d74565b5060408201518160020160006101000a81548173ffffffffffffffffffffffffffffffffffffffff021916908373ffffffffffffffffffffffffffffffffffffffff1602179055506060820151816003015560808201518160040155905050336005836040518082805190602001908083835b6020831015156114f757805182526020820191506020810190506020830392506114d2565b6001836020036101000a038019825116818451168082178552505050505050905001915050908152602001604051809103902060006101000a81548173ffffffffffffffffffffffffffffffffffffffff021916908373ffffffffffffffffffffffffffffffffffffffff16021790555060646040519080825280602002602001820160405280156115985781602001602082028038833980820191505090505b50600660008360600151815260200190815260200160002090805190602001906115c3929190611e63565b506001600081548092919060010191905055505050565b6115e2611df4565b600460008373ffffffffffffffffffffffffffffffffffffffff1673ffffffffffffffffffffffffffffffffffffffff16815260200190815260200160002060a0604051908101604052908160008201548152602001600182018054600181600116156101000203166002900480601f0160208091040260200160405190810160405280929190818152602001828054600181600116156101000203166002900480156116d05780601f106116a5576101008083540402835291602001916116d0565b820191906000526020600020905b8154815290600101906020018083116116b357829003601f168201915b505050505081526020016002820160009054906101000a900473ffffffffffffffffffffffffffffffffffffffff1673ffffffffffffffffffffffffffffffffffffffff1673ffffffffffffffffffffffffffffffffffffffff16815260200160038201548152602001600482015481525050905061174d611df4565b600460003373ffffffffffffffffffffffffffffffffffffffff1673ffffffffffffffffffffffffffffffffffffffff16815260200190815260200160002060a0604051908101604052908160008201548152602001600182018054600181600116156101000203166002900480601f01602080910402602001604051908101604052809291908181526020018280546001816001161561010002031660029004801561183b5780601f106118105761010080835404028352916020019161183b565b820191906000526020600020905b81548152906001019060200180831161181e57829003601f168201915b505050505081526020016002820160009054906101000a900473ffffffffffffffffffffffffffffffffffffffff1673ffffffffffffffffffffffffffffffffffffffff1673ffffffffffffffffffffffffffffffffffffffff168152602001600382015481526020016004820154815250509050806080018051809190600101815250506001600660008360600151815260200190815260200160002083606001518154811015156118ea57fe5b9060005260206000200181905550505050565b611905611d3c565b6002836040518082805190602001908083835b60208310151561193d5780518252602082019150602081019050602083039250611918565b6001836020036101000a03801982511681845116808217855250505050505090500191505090815260200160405180910390206060604051908101604052908160008201548152602001600182018054600181600116156101000203166002900480601f016020809104026020016040519081016040528092919081815260200182805460018160011615610100020316600290048015611a1f5780601f106119f457610100808354040283529160200191611a1f565b820191906000526020600020905b815481529060010190602001808311611a0257829003601f168201915b505050505081526020016002820160009054906101000a900473ffffffffffffffffffffffffffffffffffffffff1673ffffffffffffffffffffffffffffffffffffffff1673ffffffffffffffffffffffffffffffffffffffff1681525050905081816000018181510191508181525050505050565b6000600154905090565b606060066000838152602001908152602001600020805480602002602001604051908101604052809291908181526020018280548015611afe57602002820191906000526020600020905b815481526020019060010190808311611aea575b50505050509050919050565b60008054905090565b600060606000611b21611d3c565b6002856040518082805190602001908083835b602083101515611b595780518252602082019150602081019050602083039250611b34565b6001836020036101000a03801982511681845116808217855250505050505090500191505090815260200160405180910390206060604051908101604052908160008201548152602001600182018054600181600116156101000203166002900480601f016020809104026020016040519081016040528092919081815260200182805460018160011615610100020316600290048015611c3b5780601f10611c1057610100808354040283529160200191611c3b565b820191906000526020600020905b815481529060010190602001808311611c1e57829003601f168201915b505050505081526020016002820160009054906101000a900473ffffffffffffffffffffffffffffffffffffffff1673ffffffffffffffffffffffffffffffffffffffff1673ffffffffffffffffffffffffffffffffffffffff16815250509050806000015181602001518260400151819150935093509350509193909250565b828054600181600116156101000203166002900490600052602060002090601f016020900481019282601f10611cfd57805160ff1916838001178555611d2b565b82800160010185558215611d2b579182015b82811115611d2a578251825591602001919060010190611d0f565b5b509050611d389190611eb0565b5090565b6060604051908101604052806000815260200160608152602001600073ffffffffffffffffffffffffffffffffffffffff1681525090565b828054600181600116156101000203166002900490600052602060002090601f016020900481019282601f10611db557805160ff1916838001178555611de3565b82800160010185558215611de3579182015b82811115611de2578251825591602001919060010190611dc7565b5b509050611df09190611eb0565b5090565b60a0604051908101604052806000815260200160608152602001600073ffffffffffffffffffffffffffffffffffffffff16815260200160008152602001600081525090565b608060405190810160405280600081526020016060815260200160608152602001606081525090565b828054828255906000526020600020908101928215611e9f579160200282015b82811115611e9e578251825591602001919060010190611e83565b5b509050611eac9190611eb0565b5090565b611ed291905b80821115611ece576000816000905550600101611eb6565b5090565b9056fea165627a7a7230582060028cb32b11efc567915898877e799ec6ff12bfb15531aa84acbe93982458b50029",
  "source": "pragma solidity  ^0.5.0;\n\ncontract Main {\n\n  uint private shopSize;\n  uint private reviewerSize;\n\n  constructor() public {\n    shopSize = 0;\n    reviewerSize = 0;\n  }\n\n struct Shop {\n    uint score;\n    string name;\n    address owner;\n  }\n\n  struct Reviewer {\n    uint score;\n    string name;\n    address owner;\n    uint id;\n    uint peerReviewNum;\n  }\n\n  struct Review {\n    uint score;\n    string shopName;\n    string reviewerName;\n    string comment;\n  }\n\n  struct Checker {\n    uint score;\n    address owner;\n  }\n\n  //name <-> shop\n  mapping(string => Shop) private ShopDetails;\n\n  // shop name list\n  string[] public shops;\n\n  function addShop(string memory name) public {\n    shops.push(name);\n    Shop memory s = Shop(0,name,msg.sender);\n    ShopDetails[name] = s;\n    shopSize++;\n  }\n\n  function getShop(string memory name) public view returns (uint,string memory,address) {\n    Shop memory s = ShopDetails[name];\n    return (s.score, s.name, s.owner);\n  }\n\n  function getShopSize() public view returns (uint) {\n    return shopSize;\n  }\n\n  //address <-> reviewer\n  mapping(address => Reviewer) private reviewers;\n  mapping(string => address) private reviewerMap;\n  mapping(uint => uint[]) peerReviews;\n\n  function addReviewer(string memory name) public {\n    Reviewer memory r = Reviewer(0,name,msg.sender,reviewerSize,0);\n    reviewers[msg.sender] = r;\n    reviewerMap[name] = msg.sender;\n    peerReviews[r.id] = new uint[](100);\n    reviewerSize++;\n  }\n\n  function getReviewer(address a) public view returns (uint,string memory,address) {\n    Reviewer memory r = reviewers[a];\n    return (r.score, r.name, r.owner);\n  }\n\n  function getReviewerSize() public view returns (uint) {\n    return  reviewerSize;\n  }\n\n  //shop name <-> review list\n  mapping(string => Review[]) reviewMap;\n\n  function addReview(string memory reviewee, uint score, string memory comment) public {\n      checkReview(comment);\n      Reviewer memory reviewer = reviewers[msg.sender];\n      Review memory review = Review(score,reviewee,reviewer.name,comment);\n      reviewMap[reviewee].push(review);\n      updateShopScore(reviewee,score);\n  }\n\n  event Check(string comment);\n  function checkReview(string memory str) public {\n      emit Check(str);\n  }\n  // function getReview(string memory s) public view returns (Review[]) {\n  //     //Exception handling\n  //     return reviewMap[s];\n  // }\n\n  function updateShopScore(string memory s, uint k) public view {\n      Shop memory target = ShopDetails[s];\n      target.score += k;\n  }\n  //JS\n  function addPeerReviews(address t) public{\n    Reviewer memory target = reviewers[t];\n    Reviewer memory reviewer = reviewers[msg.sender];\n    reviewer.peerReviewNum++;\n    peerReviews[reviewer.id][target.id] = 1;\n  }\n\n  function getPeerReviews(uint i) public view returns(uint[] memory){\n    return peerReviews[i];\n  }\n\n  function updateReviewerScore(string memory r, uint k) public view{\n      address ta = reviewerMap[r];\n      Reviewer memory target = reviewers[ta];\n      target.score = k;\n  }\n\n}",
  "sourcePath": "/Users/admin/Desktop/Reviews/contracts/Main.sol",
  "compiler": {
    "name": "solc",
    "version": "0.5.0+commit.1d4f565a.Emscripten.clang"
  },
  "schemaVersion": "3.0.6",
  "updatedAt": "2019-05-21T06:25:34.596Z",
  "devdoc": {
    "methods": {}
  },
  "userdoc": {
    "methods": {}
  }
}