{
  "contractName": "Main",
  "abi": [
    {
      "constant": true,
      "inputs": [
        {
          "name": "",
          "type": "uint256"
        }
      ],
      "name": "checkers",
      "outputs": [
        {
          "name": "adrs",
          "type": "address"
        }
      ],
      "payable": false,
      "stateMutability": "view",
      "type": "function"
    },
    {
      "constant": true,
      "inputs": [
        {
          "name": "",
          "type": "uint256"
        },
        {
          "name": "",
          "type": "uint256"
        }
      ],
      "name": "graph",
      "outputs": [
        {
          "name": "",
          "type": "bool"
        }
      ],
      "payable": false,
      "stateMutability": "view",
      "type": "function"
    },
    {
      "inputs": [],
      "payable": false,
      "stateMutability": "nonpayable",
      "type": "constructor"
    },
    {
      "anonymous": false,
      "inputs": [
        {
          "indexed": true,
          "name": "adr",
          "type": "address"
        },
        {
          "indexed": false,
          "name": "reviewer",
          "type": "string"
        },
        {
          "indexed": false,
          "name": "num",
          "type": "uint256"
        }
      ],
      "name": "notifyChecker",
      "type": "event"
    },
    {
      "anonymous": false,
      "inputs": [
        {
          "indexed": true,
          "name": "userName",
          "type": "string"
        },
        {
          "indexed": false,
          "name": "num",
          "type": "uint256"
        }
      ],
      "name": "checkDone",
      "type": "event"
    },
    {
      "constant": false,
      "inputs": [
        {
          "name": "_reviewer",
          "type": "string"
        },
        {
          "name": "_reviewee",
          "type": "string"
        },
        {
          "name": "_score",
          "type": "uint256"
        },
        {
          "name": "_sentence",
          "type": "string"
        }
      ],
      "name": "_addReview",
      "outputs": [],
      "payable": false,
      "stateMutability": "nonpayable",
      "type": "function"
    },
    {
      "constant": false,
      "inputs": [
        {
          "name": "_reviewer",
          "type": "string"
        },
        {
          "name": "_num",
          "type": "uint256"
        },
        {
          "name": "_judgement",
          "type": "bool"
        },
        {
          "name": "_adrs",
          "type": "address"
        }
      ],
      "name": "_checkReview",
      "outputs": [],
      "payable": false,
      "stateMutability": "nonpayable",
      "type": "function"
    }
  ],
  "bytecode": "0x60806040523480156200001157600080fd5b5060016040519080825280602002602001820160405280156200005157816020015b6200003d62000070565b815260200190600190039081620000335790505b50600190805190602001906200006992919062000093565b5062000200565b602060405190810160405280600190602082028038833980820191505090505090565b828054828255906000526020600020908101928215620000e2579160200282015b82811115620000e157825182906001620000d0929190620000f5565b5091602001919060010190620000b4565b5b509050620000f1919062000195565b5090565b826001601f01602090048101928215620001825791602002820160005b838211156200015157835183826101000a81548160ff021916908315150217905550926020019260010160208160000104928301926001030262000112565b8015620001805782816101000a81549060ff021916905560010160208160000104928301926001030262000151565b505b509050620001919190620001c6565b5090565b620001c391905b80821115620001bf5760008181620001b59190620001f9565b506001016200019c565b5090565b90565b620001f691905b80821115620001f257600081816101000a81549060ff021916905550600101620001cd565b5090565b90565b5060009055565b61125e80620002106000396000f3fe608060405260043610610062576000357c0100000000000000000000000000000000000000000000000000000000900463ffffffff16806301f61347146100675780630584fd8d146101655780633bfb40b3146101e0578063999ef22f1461023d575b600080fd5b34801561007357600080fd5b506101636004803603608081101561008a57600080fd5b81019080803590602001906401000000008111156100a757600080fd5b8201836020820111156100b957600080fd5b803590602001918460018302840111640100000000831117156100db57600080fd5b91908080601f016020809104026020016040519081016040528093929190818152602001838380828437600081840152601f19601f82011690508083019250505050505050919291929080359060200190929190803515159060200190929190803573ffffffffffffffffffffffffffffffffffffffff16906020019092919050505061043d565b005b34801561017157600080fd5b5061019e6004803603602081101561018857600080fd5b81019080803590602001909291905050506108c8565b604051808273ffffffffffffffffffffffffffffffffffffffff1673ffffffffffffffffffffffffffffffffffffffff16815260200191505060405180910390f35b3480156101ec57600080fd5b506102236004803603604081101561020357600080fd5b810190808035906020019092919080359060200190929190505050610911565b604051808215151515815260200191505060405180910390f35b34801561024957600080fd5b5061043b6004803603608081101561026057600080fd5b810190808035906020019064010000000081111561027d57600080fd5b82018360208201111561028f57600080fd5b803590602001918460018302840111640100000000831117156102b157600080fd5b91908080601f016020809104026020016040519081016040528093929190818152602001838380828437600081840152601f19601f8201169050808301925050505050505091929192908035906020019064010000000081111561031457600080fd5b82018360208201111561032657600080fd5b8035906020019184600183028401116401000000008311171561034857600080fd5b91908080601f016020809104026020016040519081016040528093929190818152602001838380828437600081840152601f19601f82011690508083019250505050505050919291929080359060200190929190803590602001906401000000008111156103b557600080fd5b8201836020820111156103c757600080fd5b803590602001918460018302840111640100000000831117156103e957600080fd5b91908080601f016020809104026020016040519081016040528093929190818152602001838380828437600081840152601f19601f820116905080830192505050505050509192919290505050610954565b005b60006006856040518082805190602001908083835b6020831015156104775780518252602082019150602081019050602083039250610452565b6001836020036101000a0380198251168184511680821785525050505050509050019150509081526020016040518091039020848154811015156104b757fe5b90600052602060002090600a02019050828160040160008473ffffffffffffffffffffffffffffffffffffffff1673ffffffffffffffffffffffffffffffffffffffff16815260200190815260200160002060006101000a81548160ff02191690831515021790555080600901600081548092919060010191905055506003816009015414156108c1576105496110d8565b81600501602060405190810160405290816000820160009054906101000a900473ffffffffffffffffffffffffffffffffffffffff1673ffffffffffffffffffffffffffffffffffffffff1673ffffffffffffffffffffffffffffffffffffffff168152505090506105b96110d8565b82600601602060405190810160405290816000820160009054906101000a900473ffffffffffffffffffffffffffffffffffffffff1673ffffffffffffffffffffffffffffffffffffffff1673ffffffffffffffffffffffffffffffffffffffff168152505090506106296110d8565b83600701602060405190810160405290816000820160009054906101000a900473ffffffffffffffffffffffffffffffffffffffff1673ffffffffffffffffffffffffffffffffffffffff1673ffffffffffffffffffffffffffffffffffffffff16815250509050836004016000836000015173ffffffffffffffffffffffffffffffffffffffff1673ffffffffffffffffffffffffffffffffffffffff16815260200190815260200160002060009054906101000a900460ff161515846004016000856000015173ffffffffffffffffffffffffffffffffffffffff1673ffffffffffffffffffffffffffffffffffffffff16815260200190815260200160002060009054906101000a900460ff16151514156107b457836004016000846000015173ffffffffffffffffffffffffffffffffffffffff1673ffffffffffffffffffffffffffffffffffffffff16815260200190815260200160002060009054906101000a900460ff168460080160006101000a81548160ff021916908315150217905550610823565b836004016000826000015173ffffffffffffffffffffffffffffffffffffffff1673ffffffffffffffffffffffffffffffffffffffff16815260200190815260200160002060009054906101000a900460ff168460080160006101000a81548160ff0219169083151502179055505b876040518082805190602001908083835b6020831015156108595780518252602082019150602081019050602083039250610834565b6001836020036101000a03801982511681845116808217855250505050505090500191505060405180910390207f8b138babcda653b0a2523237f94f74e4592b730bd547c3e8d8836e8448673627886040518082815260200191505060405180910390a25050505b5050505050565b6002818154811015156108d757fe5b906000526020600020016000915090508060000160009054906101000a900473ffffffffffffffffffffffffffffffffffffffff16905081565b60018281548110151561092057fe5b906000526020600020018160018110151561093757fe5b60209182820401919006915091509054906101000a900460ff1681565b60006006856040518082805190602001908083835b60208310151561098e5780518252602082019150602081019050602083039250610969565b6001836020036101000a038019825116818451168082178552505050505050905001915050908152602001604051809103902080549050905060606109d283610f15565b90506109dc611102565b61012060405190810160405280888152602001878152602001868152602001858152602001836000815181101515610a1057fe5b906020019060200201518152602001836001815181101515610a2e57fe5b906020019060200201518152602001836002815181101515610a4c57fe5b906020019060200201518152602001600015158152602001600081525090506006876040518082805190602001908083835b602083101515610aa35780518252602082019150602081019050602083039250610a7e565b6001836020036101000a0380198251168184511680821785525050505050509050019150509081526020016040518091039020819080600181540180825580915050906001820390600052602060002090600a0201600090919290919091506000820151816000019080519060200190610b1e929190611163565b506020820151816001019080519060200190610b3b929190611163565b50604082015181600201556060820151816003019080519060200190610b62929190611163565b5060808201518160050160008201518160000160006101000a81548173ffffffffffffffffffffffffffffffffffffffff021916908373ffffffffffffffffffffffffffffffffffffffff160217905550505060a08201518160060160008201518160000160006101000a81548173ffffffffffffffffffffffffffffffffffffffff021916908373ffffffffffffffffffffffffffffffffffffffff160217905550505060c08201518160070160008201518160000160006101000a81548173ffffffffffffffffffffffffffffffffffffffff021916908373ffffffffffffffffffffffffffffffffffffffff160217905550505060e08201518160080160006101000a81548160ff0219169083151502179055506101008201518160090155505050816000815181101515610c9657fe5b906020019060200201516000015173ffffffffffffffffffffffffffffffffffffffff167f6052b23ec14c054368e6061cdc3a2a6ef4ef49bd5577787246b6b3e0273f051588856040518080602001838152602001828103825284818151815260200191508051906020019080838360005b83811015610d23578082015181840152602081019050610d08565b50505050905090810190601f168015610d505780820380516001836020036101000a031916815260200191505b50935050505060405180910390a2816001815181101515610d6d57fe5b906020019060200201516000015173ffffffffffffffffffffffffffffffffffffffff167f6052b23ec14c054368e6061cdc3a2a6ef4ef49bd5577787246b6b3e0273f051588856040518080602001838152602001828103825284818151815260200191508051906020019080838360005b83811015610dfa578082015181840152602081019050610ddf565b50505050905090810190601f168015610e275780820380516001836020036101000a031916815260200191505b50935050505060405180910390a2816002815181101515610e4457fe5b906020019060200201516000015173ffffffffffffffffffffffffffffffffffffffff167f6052b23ec14c054368e6061cdc3a2a6ef4ef49bd5577787246b6b3e0273f051588856040518080602001838152602001828103825284818151815260200191508051906020019080838360005b83811015610ed1578082015181840152602081019050610eb6565b50505050905090810190601f168015610efe5780820380516001836020036101000a031916815260200191505b50935050505060405180910390a250505050505050565b6060806003604051908082528060200260200182016040528015610f5357816020015b610f406111e3565b815260200190600190039081610f385790505b50905060008090505b6003811015611030576000610f708561103a565b9050610f7a6110d8565b60026064848401811515610f8a57fe5b06815481101515610f9757fe5b90600052602060002001602060405190810160405290816000820160009054906101000a900473ffffffffffffffffffffffffffffffffffffffff1673ffffffffffffffffffffffffffffffffffffffff1673ffffffffffffffffffffffffffffffffffffffff1681525050905080848481518110151561101457fe5b9060200190602002018190525050508080600101915050610f5c565b5080915050919050565b600080826040516020018080602001828103825283818151815260200191508051906020019080838360005b83811015611081578082015181840152602081019050611066565b50505050905090810190601f1680156110ae5780820380516001836020036101000a031916815260200191505b50925050506040516020818303038152906040528051906020012060019004905080915050919050565b602060405190810160405280600073ffffffffffffffffffffffffffffffffffffffff1681525090565b61012060405190810160405280606081526020016060815260200160008152602001606081526020016111336111e3565b81526020016111406111e3565b815260200161114d6111e3565b8152602001600015158152602001600081525090565b828054600181600116156101000203166002900490600052602060002090601f016020900481019282601f106111a457805160ff19168380011785556111d2565b828001600101855582156111d2579182015b828111156111d15782518255916020019190600101906111b6565b5b5090506111df919061120d565b5090565b602060405190810160405280600073ffffffffffffffffffffffffffffffffffffffff1681525090565b61122f91905b8082111561122b576000816000905550600101611213565b5090565b9056fea165627a7a72305820622b0220259e1d8b77eec290042c4be01e0e921337d70b75d796a0a04a69a1a30029",
  "source": "pragma solidity  ^0.5.0;\n\ncontract Main {\n    uint constant numOfReviewees = 1;\n\n    uint constant numOfCheckers = 3;\n\n    uint constant numOfAllCheckers = 100;\n\n    string lastCalcTimeStamp;\n\n  struct Review {\n      string reviewer;\n      string reviewee;\n      uint score;\n      string sentence;\n      mapping(address => bool) checkerToApproval;\n      Checker checker1;\n      Checker checker2;\n      Checker checker3;\n      bool isApproved;\n      uint checkCnt;\n  }\n\n  struct Reviewer {\n    string name;\n    address adr;\n    uint score;\n  }\n\n  struct Reviewee {\n    string name;\n    address adr;\n    uint score;\n  }\n\n  struct Checker {\n    address adrs;\n  }\n\n  bool[numOfReviewees][] public graph;\n\n  Checker[] public  checkers;\n\n  mapping (string => Reviewer) nameToReviewer;\n\n  mapping(string => Reviewee) nameToReviewee;\n\n  mapping(string => Review[]) revieweeToReview;\n\n  mapping(string => Review[]) reviewerToReview;\n\n  // constructor\n  constructor() public {\n    graph = new bool[numOfReviewees][](numOfReviewees);\n  }\n\n  event notifyChecker(address indexed adr, string reviewer, uint num);\n\n  event checkDone(string indexed userName, uint num);\n\n  function _generateRandomNumber(string memory _str) private pure returns (uint) {\n      uint rand = uint(keccak256(abi.encode(_str)));\n      return rand;\n  }\n\n  function _addReview(string memory _reviewer, string memory _reviewee, uint _score, string memory _sentence) public {\n    uint num = reviewerToReview[_reviewer].length;\n    Checker[] memory selectedCheckers = _selectCheckers(_sentence);\n    Review memory review = Review(_reviewer, _reviewee, _score, _sentence, selectedCheckers[0],\n                                                        selectedCheckers[1], selectedCheckers[2],false, 0);\n    reviewerToReview[_reviewer].push(review);\n    emit notifyChecker(selectedCheckers[0].adrs, _reviewer, num);\n    emit notifyChecker(selectedCheckers[1].adrs, _reviewer, num);\n    emit notifyChecker(selectedCheckers[2].adrs, _reviewer, num);\n  }\n\n  function _selectCheckers(string memory _sentence) private view returns (Checker[] memory) {\n    Checker[] memory selectedCheckers = new Checker[](3);\n    for(uint i = 0; i < 3; i++) {\n      uint rand = _generateRandomNumber(_sentence);\n      Checker memory checker = checkers[(rand+i)%numOfAllCheckers];\n      selectedCheckers[i] = checker;\n    }\n    return selectedCheckers;\n  }\n\n  function _checkReview(string memory _reviewer, uint _num, bool _judgement, address _adrs) public {\n    Review storage review = reviewerToReview[_reviewer][_num];\n    review.checkerToApproval[_adrs] = _judgement;\n    review.checkCnt++;\n    if(review.checkCnt == numOfCheckers){\n      Checker memory checker1 = review.checker1;\n      Checker memory checker2 = review.checker2;\n      Checker memory checker3 = review.checker3;\n      if(review.checkerToApproval[checker1.adrs] == review.checkerToApproval[checker2.adrs]) review.isApproved = review.checkerToApproval[checker1.adrs];\n      else review.isApproved = review.checkerToApproval[checker3.adrs];\n      emit checkDone(_reviewer, _num);\n    }\n  }\n}",
  "sourcePath": "/Users/admin/Desktop/Reviews/contracts/Main.sol",
  "compiler": {
    "name": "solc",
    "version": "0.5.0+commit.1d4f565a.Emscripten.clang"
  },
  "schemaVersion": "3.0.6",
  "updatedAt": "2019-11-14T07:55:42.408Z",
  "devdoc": {
    "methods": {}
  },
  "userdoc": {
    "methods": {}
  }
}