{
  "contractName": "Main",
  "abi": [
    {
      "inputs": [],
      "payable": false,
      "stateMutability": "nonpayable",
      "type": "constructor",
      "signature": "constructor"
    },
    {
      "constant": true,
      "inputs": [],
      "name": "get",
      "outputs": [
        {
          "name": "",
          "type": "string"
        }
      ],
      "payable": false,
      "stateMutability": "view",
      "type": "function",
      "signature": "0x6d4ce63c"
    },
    {
      "constant": false,
      "inputs": [
        {
          "name": "name",
          "type": "string"
        }
      ],
      "name": "addShop",
      "outputs": [],
      "payable": false,
      "stateMutability": "nonpayable",
      "type": "function",
      "signature": "0x0c1fa2bc"
    },
    {
      "constant": false,
      "inputs": [
        {
          "name": "name",
          "type": "string"
        }
      ],
      "name": "addReviewer",
      "outputs": [],
      "payable": false,
      "stateMutability": "nonpayable",
      "type": "function",
      "signature": "0xa9ccf5c4"
    },
    {
      "constant": true,
      "inputs": [],
      "name": "getShopSize",
      "outputs": [
        {
          "name": "",
          "type": "uint256"
        }
      ],
      "payable": false,
      "stateMutability": "view",
      "type": "function",
      "signature": "0xf52d106d"
    },
    {
      "constant": false,
      "inputs": [
        {
          "name": "reviewee",
          "type": "string"
        },
        {
          "name": "score",
          "type": "uint256"
        },
        {
          "name": "comment",
          "type": "string"
        }
      ],
      "name": "addReview",
      "outputs": [],
      "payable": false,
      "stateMutability": "nonpayable",
      "type": "function",
      "signature": "0xa65ef9f0"
    }
  ],
  "bytecode": "0x6080604052600060035534801561001557600080fd5b506040805190810160405280600581526020017f4d61696e210000000000000000000000000000000000000000000000000000008152506000908051906020019061006192919061006f565b506000600181905550610114565b828054600181600116156101000203166002900490600052602060002090601f016020900481019282601f106100b057805160ff19168380011785556100de565b828001600101855582156100de579182015b828111156100dd5782518255916020019190600101906100c2565b5b5090506100eb91906100ef565b5090565b61011191905b8082111561010d5760008160009055506001016100f5565b5090565b90565b610b1c806101236000396000f3fe60806040526004361061006d576000357c0100000000000000000000000000000000000000000000000000000000900463ffffffff1680630c1fa2bc146100725780636d4ce63c1461013a578063a65ef9f0146101ca578063a9ccf5c414610333578063f52d106d146103fb575b600080fd5b34801561007e57600080fd5b506101386004803603602081101561009557600080fd5b81019080803590602001906401000000008111156100b257600080fd5b8201836020820111156100c457600080fd5b803590602001918460018302840111640100000000831117156100e657600080fd5b91908080601f016020809104026020016040519081016040528093929190818152602001838380828437600081840152601f19601f820116905080830192505050505050509192919290505050610426565b005b34801561014657600080fd5b5061014f610556565b6040518080602001828103825283818151815260200191508051906020019080838360005b8381101561018f578082015181840152602081019050610174565b50505050905090810190601f1680156101bc5780820380516001836020036101000a031916815260200191505b509250505060405180910390f35b3480156101d657600080fd5b50610331600480360360608110156101ed57600080fd5b810190808035906020019064010000000081111561020a57600080fd5b82018360208201111561021c57600080fd5b8035906020019184600183028401116401000000008311171561023e57600080fd5b91908080601f016020809104026020016040519081016040528093929190818152602001838380828437600081840152601f19601f82011690508083019250505050505050919291929080359060200190929190803590602001906401000000008111156102ab57600080fd5b8201836020820111156102bd57600080fd5b803590602001918460018302840111640100000000831117156102df57600080fd5b91908080601f016020809104026020016040519081016040528093929190818152602001838380828437600081840152601f19601f8201169050808301925050505050505091929192905050506105f8565b005b34801561033f57600080fd5b506103f96004803603602081101561035657600080fd5b810190808035906020019064010000000081111561037357600080fd5b82018360208201111561038557600080fd5b803590602001918460018302840111640100000000831117156103a757600080fd5b91908080601f016020809104026020016040519081016040528093929190818152602001838380828437600081840152601f19601f82011690508083019250505050505050919291929050505061088b565b005b34801561040757600080fd5b506104106109a1565b6040518082815260200191505060405180910390f35b61042e6109ab565b606060405190810160405280600081526020018381526020013373ffffffffffffffffffffffffffffffffffffffff168152509050806002836040518082805190602001908083835b60208310151561049c5780518252602082019150602081019050602083039250610477565b6001836020036101000a03801982511681845116808217855250505050505090500191505090815260200160405180910390206000820151816000015560208201518160010190805190602001906104f59291906109e3565b5060408201518160020160006101000a81548173ffffffffffffffffffffffffffffffffffffffff021916908373ffffffffffffffffffffffffffffffffffffffff1602179055509050506001600081548092919060010191905055505050565b606060008054600181600116156101000203166002900480601f0160208091040260200160405190810160405280929190818152602001828054600181600116156101000203166002900480156105ee5780601f106105c3576101008083540402835291602001916105ee565b820191906000526020600020905b8154815290600101906020018083116105d157829003601f168201915b5050505050905090565b610600610a63565b600460003373ffffffffffffffffffffffffffffffffffffffff1673ffffffffffffffffffffffffffffffffffffffff1681526020019081526020016000206080604051908101604052908160008201548152602001600182018054600181600116156101000203166002900480601f0160208091040260200160405190810160405280929190818152602001828054600181600116156101000203166002900480156106ee5780601f106106c3576101008083540402835291602001916106ee565b820191906000526020600020905b8154815290600101906020018083116106d157829003601f168201915b50505050508152602001600282015481526020016003820160009054906101000a900473ffffffffffffffffffffffffffffffffffffffff1673ffffffffffffffffffffffffffffffffffffffff1673ffffffffffffffffffffffffffffffffffffffff16815250509050610761610aa2565b608060405190810160405280858152602001868152602001836020015181526020018481525090506005856040518082805190602001908083835b6020831015156107c1578051825260208201915060208101905060208303925061079c565b6001836020036101000a038019825116818451168082178552505050505050905001915050908152602001604051809103902081908060018154018082558091505090600182039060005260206000209060040201600090919290919091506000820151816000015560208201518160010190805190602001906108469291906109e3565b5060408201518160020190805190602001906108639291906109e3565b5060608201518160030190805190602001906108809291906109e3565b505050505050505050565b610893610a63565b6080604051908101604052806000815260200183815260200160035481526020013373ffffffffffffffffffffffffffffffffffffffff16815250905080600460003373ffffffffffffffffffffffffffffffffffffffff1673ffffffffffffffffffffffffffffffffffffffff1681526020019081526020016000206000820151816000015560208201518160010190805190602001906109369291906109e3565b506040820151816002015560608201518160030160006101000a81548173ffffffffffffffffffffffffffffffffffffffff021916908373ffffffffffffffffffffffffffffffffffffffff1602179055509050506003600081548092919060010191905055505050565b6000600154905090565b6060604051908101604052806000815260200160608152602001600073ffffffffffffffffffffffffffffffffffffffff1681525090565b828054600181600116156101000203166002900490600052602060002090601f016020900481019282601f10610a2457805160ff1916838001178555610a52565b82800160010185558215610a52579182015b82811115610a51578251825591602001919060010190610a36565b5b509050610a5f9190610acb565b5090565b608060405190810160405280600081526020016060815260200160008152602001600073ffffffffffffffffffffffffffffffffffffffff1681525090565b608060405190810160405280600081526020016060815260200160608152602001606081525090565b610aed91905b80821115610ae9576000816000905550600101610ad1565b5090565b9056fea165627a7a723058204ee64908c65138983ecae80ac6ff9bd33a59a3094e7163980f60999b9531929a0029",
  "source": "pragma solidity  ^0.5.0;\n\ncontract Main {\n\n  string private _word;\n  uint private shopSize;\n\n  constructor() public {\n    _word = \"Main!\";\n    shopSize = 0;\n  }\n  function get() public view returns(string memory){\n    return _word;\n  }\n struct Shop {\n    uint score;\n    string name;\n    address owner;\n  }\n\n  struct Reviewer {\n    uint score;\n    string name;\n    uint reviewerId;\n    address sender;\n  }\n\n  struct Review {\n    uint score;\n    string shopName;\n    string reviewerName;\n    string comment;\n  }\n\n  //name <-> shop\n  mapping(string => Shop) Shops;\n\n  uint reviewerSize = 0;\n\n  //address <-> reviewer\n  mapping(address => Reviewer) reviewers;\n\n  function addShop(string memory name) public {\n    Shop memory s = Shop(0,name,msg.sender);\n    Shops[name] = s;\n    shopSize++;\n  }\n\n  function addReviewer(string memory name) public {\n    Reviewer memory r = Reviewer(0,name,reviewerSize,msg.sender);\n    reviewers[msg.sender] = r;\n    reviewerSize++;\n  }\n\n  function getShopSize() public view returns (uint) {\n    return shopSize;\n  }\n\n  //shop name <-> review list\n  mapping(string => Review[]) reviewMap;\n\n  function addReview(string memory reviewee, uint score, string memory comment) public {\n      Reviewer memory rer = reviewers[msg.sender];\n      Review memory review = Review(score,reviewee,rer.name,comment);\n      reviewMap[reviewee].push(review);\n  }\n\n}",
  "sourcePath": "/Users/admin/Desktop/Reviews/contracts/Main.sol",
  "compiler": {
    "name": "solc",
    "version": "0.5.0+commit.1d4f565a.Emscripten.clang"
  },
  "schemaVersion": "3.0.6",
  "updatedAt": "2019-05-09T07:55:16.910Z",
  "devdoc": {
    "methods": {}
  },
  "userdoc": {
    "methods": {}
  }
}