{
  "contractName": "Main",
  "abi": [
    {
      "constant": true,
      "inputs": [
        {
          "name": "",
          "type": "uint256"
        }
      ],
      "name": "checkers",
      "outputs": [
        {
          "name": "ads",
          "type": "address"
        }
      ],
      "payable": false,
      "stateMutability": "view",
      "type": "function"
    },
    {
      "constant": true,
      "inputs": [
        {
          "name": "",
          "type": "uint256"
        },
        {
          "name": "",
          "type": "uint256"
        }
      ],
      "name": "graph",
      "outputs": [
        {
          "name": "",
          "type": "bool"
        }
      ],
      "payable": false,
      "stateMutability": "view",
      "type": "function"
    },
    {
      "inputs": [],
      "payable": false,
      "stateMutability": "nonpayable",
      "type": "constructor"
    }
  ],
  "bytecode": "0x60806040526010600155600154600a0a60025534801561001e57600080fd5b50600160405190808252806020026020018201604052801561005a57816020015b610047610076565b81526020019060019003908161003f5790505b5060039080519060200190610070929190610099565b506101f0565b602060405190810160405280600190602082028038833980820191505090505090565b8280548282559060005260206000209081019282156100e3579160200282015b828111156100e2578251829060016100d29291906100f4565b50916020019190600101906100b9565b5b5090506100f0919061018d565b5090565b826001601f0160209004810192821561017c5791602002820160005b8382111561014d57835183826101000a81548160ff0219169083151502179055509260200192600101602081600001049283019260010302610110565b801561017a5782816101000a81549060ff021916905560010160208160000104928301926001030261014d565b505b50905061018991906101b9565b5090565b6101b691905b808211156101b257600081816101a991906101e9565b50600101610193565b5090565b90565b6101e691905b808211156101e257600081816101000a81549060ff0219169055506001016101bf565b5090565b90565b5060009055565b6101e1806101ff6000396000f3fe60806040526004361061004c576000357c0100000000000000000000000000000000000000000000000000000000900463ffffffff1680630584fd8d146100515780633bfb40b3146100cc575b600080fd5b34801561005d57600080fd5b5061008a6004803603602081101561007457600080fd5b8101908080359060200190929190505050610129565b604051808273ffffffffffffffffffffffffffffffffffffffff1673ffffffffffffffffffffffffffffffffffffffff16815260200191505060405180910390f35b3480156100d857600080fd5b5061010f600480360360408110156100ef57600080fd5b810190808035906020019092919080359060200190929190505050610172565b604051808215151515815260200191505060405180910390f35b60048181548110151561013857fe5b906000526020600020016000915090508060000160009054906101000a900473ffffffffffffffffffffffffffffffffffffffff16905081565b60038281548110151561018157fe5b906000526020600020018160018110151561019857fe5b60209182820401919006915091509054906101000a900460ff168156fea165627a7a7230582061a787b19a6f49871ac168fee54585c4dfbd5ba14973fb64d982588b340bac050029",
  "source": "pragma solidity  ^0.5.0;\n\ncontract Main {\n    uint constant numOfReviewees = 1;\n\n    string lastCalcTimeStamp;\n\n    uint dnaDigits = 16;\n\n    uint dnaModulus = 10 ** dnaDigits;\n\n  struct Review {\n      string reviewer;\n      uint score;\n      string sentence;\n      bool[] approvals;\n  }\n\n  struct Reviewer {\n    string name;\n    address adr;\n    uint score;\n  }\n\n  struct Reviewee {\n    string name;\n    address adr;\n    uint score;\n  }\n\n  struct Checker {\n    address ads;\n  }\n\n  bool[numOfReviewees][] public graph;\n\n  Checker[] public  checkers;\n\n  mapping (string => Reviewer) nameToReviewer;\n\n  mapping(string => Reviewee) nameToReviewee;\n\n  mapping(string => Review[]) revieweeToReview;\n\n  mapping(string => Review[]) reviewerToReview;\n\n  // constructor\n  constructor() public {\n    graph = new bool[numOfReviewees][](numOfReviewees);\n  }\n\n  function _generateRandomNumber(string memory _str) private view returns (uint) {\n      uint rand = uint(keccak256(abi.encode(_str)));\n      return rand % dnaModulus;\n  }\n\n  // function _addReview(string memory _reviewer, string memory _reviewee, uint _score, string memory _sentence) public {\n\n  // } \n}",
  "sourcePath": "/Users/admin/Desktop/Reviews/contracts/Main.sol",
  "compiler": {
    "name": "solc",
    "version": "0.5.0+commit.1d4f565a.Emscripten.clang"
  },
  "schemaVersion": "3.0.6",
  "updatedAt": "2019-11-12T12:18:11.092Z",
  "devdoc": {
    "methods": {}
  },
  "userdoc": {
    "methods": {}
  }
}