{
  "contractName": "Main",
  "abi": [
    {
      "constant": true,
      "inputs": [
        {
          "name": "",
          "type": "uint256"
        }
      ],
      "name": "shops",
      "outputs": [
        {
          "name": "",
          "type": "string"
        }
      ],
      "payable": false,
      "stateMutability": "view",
      "type": "function"
    },
    {
      "inputs": [],
      "payable": false,
      "stateMutability": "nonpayable",
      "type": "constructor"
    },
    {
      "constant": false,
      "inputs": [
        {
          "name": "name",
          "type": "string"
        }
      ],
      "name": "addShop",
      "outputs": [],
      "payable": false,
      "stateMutability": "nonpayable",
      "type": "function"
    },
    {
      "constant": true,
      "inputs": [
        {
          "name": "name",
          "type": "string"
        }
      ],
      "name": "getShop",
      "outputs": [
        {
          "name": "",
          "type": "uint256"
        },
        {
          "name": "",
          "type": "string"
        },
        {
          "name": "",
          "type": "address"
        }
      ],
      "payable": false,
      "stateMutability": "view",
      "type": "function"
    },
    {
      "constant": true,
      "inputs": [],
      "name": "getShopSize",
      "outputs": [
        {
          "name": "",
          "type": "uint256"
        }
      ],
      "payable": false,
      "stateMutability": "view",
      "type": "function"
    },
    {
      "constant": false,
      "inputs": [
        {
          "name": "name",
          "type": "string"
        }
      ],
      "name": "addReviewer",
      "outputs": [],
      "payable": false,
      "stateMutability": "nonpayable",
      "type": "function"
    },
    {
      "constant": true,
      "inputs": [
        {
          "name": "a",
          "type": "address"
        }
      ],
      "name": "getReviewer",
      "outputs": [
        {
          "name": "",
          "type": "uint256"
        },
        {
          "name": "",
          "type": "string"
        },
        {
          "name": "",
          "type": "address"
        }
      ],
      "payable": false,
      "stateMutability": "view",
      "type": "function"
    },
    {
      "constant": false,
      "inputs": [
        {
          "name": "reviewee",
          "type": "string"
        },
        {
          "name": "score",
          "type": "uint256"
        },
        {
          "name": "comment",
          "type": "string"
        }
      ],
      "name": "addReview",
      "outputs": [],
      "payable": false,
      "stateMutability": "nonpayable",
      "type": "function"
    }
  ],
  "bytecode": "0x608060405234801561001057600080fd5b506000808190555060006001819055506111ae8061002f6000396000f3fe608060405260043610610083576000357c0100000000000000000000000000000000000000000000000000000000900463ffffffff1680630c1fa2bc14610088578063713aca74146101505780638979d90114610204578063a65ef9f014610308578063a9ccf5c414610471578063f52d106d14610539578063fa28dc0b14610564575b600080fd5b34801561009457600080fd5b5061014e600480360360208110156100ab57600080fd5b81019080803590602001906401000000008111156100c857600080fd5b8201836020820111156100da57600080fd5b803590602001918460018302840111640100000000831117156100fc57600080fd5b91908080601f016020809104026020016040519081016040528093929190818152602001838380828437600081840152601f19601f8201169050808301925050505050505091929192905050506106df565b005b34801561015c57600080fd5b506101896004803603602081101561017357600080fd5b810190808035906020019092919050505061084d565b6040518080602001828103825283818151815260200191508051906020019080838360005b838110156101c95780820151818401526020810190506101ae565b50505050905090810190601f1680156101f65780820380516001836020036101000a031916815260200191505b509250505060405180910390f35b34801561021057600080fd5b506102536004803603602081101561022757600080fd5b81019080803573ffffffffffffffffffffffffffffffffffffffff169060200190929190505050610908565b60405180848152602001806020018373ffffffffffffffffffffffffffffffffffffffff1673ffffffffffffffffffffffffffffffffffffffff168152602001828103825284818151815260200191508051906020019080838360005b838110156102cb5780820151818401526020810190506102b0565b50505050905090810190601f1680156102f85780820380516001836020036101000a031916815260200191505b5094505050505060405180910390f35b34801561031457600080fd5b5061046f6004803603606081101561032b57600080fd5b810190808035906020019064010000000081111561034857600080fd5b82018360208201111561035a57600080fd5b8035906020019184600183028401116401000000008311171561037c57600080fd5b91908080601f016020809104026020016040519081016040528093929190818152602001838380828437600081840152601f19601f82011690508083019250505050505050919291929080359060200190929190803590602001906401000000008111156103e957600080fd5b8201836020820111156103fb57600080fd5b8035906020019184600183028401116401000000008311171561041d57600080fd5b91908080601f016020809104026020016040519081016040528093929190818152602001838380828437600081840152601f19601f820116905080830192505050505050509192919290505050610a85565b005b34801561047d57600080fd5b506105376004803603602081101561049457600080fd5b81019080803590602001906401000000008111156104b157600080fd5b8201836020820111156104c357600080fd5b803590602001918460018302840111640100000000831117156104e557600080fd5b91908080601f016020809104026020016040519081016040528093929190818152602001838380828437600081840152601f19601f820116905080830192505050505050509192919290505050610d0e565b005b34801561054557600080fd5b5061054e610e12565b6040518082815260200191505060405180910390f35b34801561057057600080fd5b5061062a6004803603602081101561058757600080fd5b81019080803590602001906401000000008111156105a457600080fd5b8201836020820111156105b657600080fd5b803590602001918460018302840111640100000000831117156105d857600080fd5b91908080601f016020809104026020016040519081016040528093929190818152602001838380828437600081840152601f19601f820116905080830192505050505050509192919290505050610e1b565b60405180848152602001806020018373ffffffffffffffffffffffffffffffffffffffff1673ffffffffffffffffffffffffffffffffffffffff168152602001828103825284818151815260200191508051906020019080838360005b838110156106a2578082015181840152602081019050610687565b50505050905090810190601f1680156106cf5780820380516001836020036101000a031916815260200191505b5094505050505060405180910390f35b600381908060018154018082558091505090600182039060005260206000200160009091929091909150908051906020019061071c929190610fc4565b5050610726611044565b606060405190810160405280600081526020018381526020013373ffffffffffffffffffffffffffffffffffffffff168152509050806002836040518082805190602001908083835b602083101515610794578051825260208201915060208101905060208303925061076f565b6001836020036101000a03801982511681845116808217855250505050505090500191505090815260200160405180910390206000820151816000015560208201518160010190805190602001906107ed92919061107c565b5060408201518160020160006101000a81548173ffffffffffffffffffffffffffffffffffffffff021916908373ffffffffffffffffffffffffffffffffffffffff16021790555090505060008081548092919060010191905055505050565b60038181548110151561085c57fe5b906000526020600020016000915090508054600181600116156101000203166002900480601f0160208091040260200160405190810160405280929190818152602001828054600181600116156101000203166002900480156109005780601f106108d557610100808354040283529160200191610900565b820191906000526020600020905b8154815290600101906020018083116108e357829003601f168201915b505050505081565b6000606060006109166110fc565b600460008673ffffffffffffffffffffffffffffffffffffffff1673ffffffffffffffffffffffffffffffffffffffff1681526020019081526020016000206060604051908101604052908160008201548152602001600182018054600181600116156101000203166002900480601f016020809104026020016040519081016040528092919081815260200182805460018160011615610100020316600290048015610a045780601f106109d957610100808354040283529160200191610a04565b820191906000526020600020905b8154815290600101906020018083116109e757829003601f168201915b505050505081526020016002820160009054906101000a900473ffffffffffffffffffffffffffffffffffffffff1673ffffffffffffffffffffffffffffffffffffffff1673ffffffffffffffffffffffffffffffffffffffff16815250509050806000015181602001518260400151819150935093509350509193909250565b610a8d6110fc565b600460003373ffffffffffffffffffffffffffffffffffffffff1673ffffffffffffffffffffffffffffffffffffffff1681526020019081526020016000206060604051908101604052908160008201548152602001600182018054600181600116156101000203166002900480601f016020809104026020016040519081016040528092919081815260200182805460018160011615610100020316600290048015610b7b5780601f10610b5057610100808354040283529160200191610b7b565b820191906000526020600020905b815481529060010190602001808311610b5e57829003601f168201915b505050505081526020016002820160009054906101000a900473ffffffffffffffffffffffffffffffffffffffff1673ffffffffffffffffffffffffffffffffffffffff1673ffffffffffffffffffffffffffffffffffffffff16815250509050610be4611134565b608060405190810160405280858152602001868152602001836020015181526020018481525090506005856040518082805190602001908083835b602083101515610c445780518252602082019150602081019050602083039250610c1f565b6001836020036101000a03801982511681845116808217855250505050505090500191505090815260200160405180910390208190806001815401808255809150509060018203906000526020600020906004020160009091929091909150600082015181600001556020820151816001019080519060200190610cc992919061107c565b506040820151816002019080519060200190610ce692919061107c565b506060820151816003019080519060200190610d0392919061107c565b505050505050505050565b610d166110fc565b606060405190810160405280600081526020018381526020013373ffffffffffffffffffffffffffffffffffffffff16815250905080600460003373ffffffffffffffffffffffffffffffffffffffff1673ffffffffffffffffffffffffffffffffffffffff168152602001908152602001600020600082015181600001556020820151816001019080519060200190610db192919061107c565b5060408201518160020160006101000a81548173ffffffffffffffffffffffffffffffffffffffff021916908373ffffffffffffffffffffffffffffffffffffffff1602179055509050506001600081548092919060010191905055505050565b60008054905090565b600060606000610e29611044565b6002856040518082805190602001908083835b602083101515610e615780518252602082019150602081019050602083039250610e3c565b6001836020036101000a03801982511681845116808217855250505050505090500191505090815260200160405180910390206060604051908101604052908160008201548152602001600182018054600181600116156101000203166002900480601f016020809104026020016040519081016040528092919081815260200182805460018160011615610100020316600290048015610f435780601f10610f1857610100808354040283529160200191610f43565b820191906000526020600020905b815481529060010190602001808311610f2657829003601f168201915b505050505081526020016002820160009054906101000a900473ffffffffffffffffffffffffffffffffffffffff1673ffffffffffffffffffffffffffffffffffffffff1673ffffffffffffffffffffffffffffffffffffffff16815250509050806000015181602001518260400151819150935093509350509193909250565b828054600181600116156101000203166002900490600052602060002090601f016020900481019282601f1061100557805160ff1916838001178555611033565b82800160010185558215611033579182015b82811115611032578251825591602001919060010190611017565b5b509050611040919061115d565b5090565b6060604051908101604052806000815260200160608152602001600073ffffffffffffffffffffffffffffffffffffffff1681525090565b828054600181600116156101000203166002900490600052602060002090601f016020900481019282601f106110bd57805160ff19168380011785556110eb565b828001600101855582156110eb579182015b828111156110ea5782518255916020019190600101906110cf565b5b5090506110f8919061115d565b5090565b6060604051908101604052806000815260200160608152602001600073ffffffffffffffffffffffffffffffffffffffff1681525090565b608060405190810160405280600081526020016060815260200160608152602001606081525090565b61117f91905b8082111561117b576000816000905550600101611163565b5090565b9056fea165627a7a72305820e6b7a8108c03da28561dae7aa16af2a8947be4567bd1ffc84ed60251ad92a4d40029",
  "source": "pragma solidity  ^0.5.0;\n\ncontract Main {\n\n  uint private shopSize;\n  uint private reviewerSize;\n\n  constructor() public {\n    shopSize = 0;\n    reviewerSize = 0;\n  }\n\n struct Shop {\n    uint score;\n    string name;\n    address owner;\n  }\n\n  struct Reviewer {\n    uint score;\n    string name;\n    address sender;\n  }\n\n  struct Review {\n    uint score;\n    string shopName;\n    string reviewerName;\n    string comment;\n  }\n\n  //name <-> shop\n  mapping(string => Shop) private ShopDetails;\n\n  // shop name list\n  string[] public shops;\n\n  function addShop(string memory name) public {\n    shops.push(name);\n    Shop memory s = Shop(0,name,msg.sender);\n    ShopDetails[name] = s;\n    shopSize++;\n  }\n\n  function getShop(string memory name) public view returns (uint,string memory,address) {\n    Shop memory s = ShopDetails[name];\n    return (s.score, s.name, s.owner);\n  }\n\n  function getShopSize() public view returns (uint) {\n    return shopSize;\n  }\n\n  //address <-> reviewer\n  mapping(address => Reviewer) private reviewers;\n\n  function addReviewer(string memory name) public {\n    Reviewer memory r = Reviewer(0,name,msg.sender);\n    reviewers[msg.sender] = r;\n    reviewerSize++;\n  }\n\n  function getReviewer(address a) public view returns (uint,string memory,address) {\n    Reviewer memory r = reviewers[a];\n    return (r.score, r.name, r.sender);\n  }\n\n  //shop name <-> review list\n  mapping(string => Review[]) reviewMap;\n\n  function addReview(string memory reviewee, uint score, string memory comment) public {\n      Reviewer memory reviewer = reviewers[msg.sender];\n      Review memory review = Review(score,reviewee,reviewer.name,comment);\n      reviewMap[reviewee].push(review);\n  }\n\n  // function getReview(string memory s) public view returns (Review[]) {\n  //     //Exception handling\n  //     return reviewMap[s];\n  // }\n}",
  "sourcePath": "/Users/admin/Desktop/Reviews/contracts/Main.sol",
  "compiler": {
    "name": "solc",
    "version": "0.5.0+commit.1d4f565a.Emscripten.clang"
  },
  "schemaVersion": "3.0.6",
  "updatedAt": "2019-05-14T09:46:02.696Z",
  "devdoc": {
    "methods": {}
  },
  "userdoc": {
    "methods": {}
  }
}