{
  "contractName": "Main",
  "abi": [
    {
      "constant": true,
      "inputs": [
        {
          "name": "",
          "type": "uint256"
        }
      ],
      "name": "shops",
      "outputs": [
        {
          "name": "",
          "type": "string"
        }
      ],
      "payable": false,
      "stateMutability": "view",
      "type": "function",
      "signature": "0x713aca74"
    },
    {
      "inputs": [],
      "payable": false,
      "stateMutability": "nonpayable",
      "type": "constructor",
      "signature": "constructor"
    },
    {
      "constant": false,
      "inputs": [],
      "name": "initArray",
      "outputs": [],
      "payable": false,
      "stateMutability": "nonpayable",
      "type": "function",
      "signature": "0x82a8181b"
    },
    {
      "constant": false,
      "inputs": [
        {
          "name": "name",
          "type": "string"
        }
      ],
      "name": "addShop",
      "outputs": [],
      "payable": false,
      "stateMutability": "nonpayable",
      "type": "function",
      "signature": "0x0c1fa2bc"
    },
    {
      "constant": true,
      "inputs": [
        {
          "name": "name",
          "type": "string"
        }
      ],
      "name": "getShop",
      "outputs": [
        {
          "name": "",
          "type": "uint256"
        },
        {
          "name": "",
          "type": "string"
        },
        {
          "name": "",
          "type": "address"
        }
      ],
      "payable": false,
      "stateMutability": "view",
      "type": "function",
      "signature": "0xfa28dc0b"
    },
    {
      "constant": true,
      "inputs": [],
      "name": "getShopSize",
      "outputs": [
        {
          "name": "",
          "type": "uint256"
        }
      ],
      "payable": false,
      "stateMutability": "view",
      "type": "function",
      "signature": "0xf52d106d"
    },
    {
      "constant": false,
      "inputs": [
        {
          "name": "name",
          "type": "string"
        }
      ],
      "name": "addReviewer",
      "outputs": [],
      "payable": false,
      "stateMutability": "nonpayable",
      "type": "function",
      "signature": "0xa9ccf5c4"
    },
    {
      "constant": true,
      "inputs": [
        {
          "name": "a",
          "type": "uint256"
        }
      ],
      "name": "getReviewer",
      "outputs": [
        {
          "name": "",
          "type": "uint256"
        },
        {
          "name": "",
          "type": "string"
        },
        {
          "name": "",
          "type": "address"
        }
      ],
      "payable": false,
      "stateMutability": "view",
      "type": "function",
      "signature": "0x31d4655c"
    },
    {
      "constant": true,
      "inputs": [],
      "name": "getReviewerSize",
      "outputs": [
        {
          "name": "",
          "type": "uint256"
        }
      ],
      "payable": false,
      "stateMutability": "view",
      "type": "function",
      "signature": "0xe2f1868b"
    },
    {
      "constant": false,
      "inputs": [
        {
          "name": "reviewee",
          "type": "string"
        },
        {
          "name": "score",
          "type": "uint256"
        },
        {
          "name": "comment",
          "type": "string"
        }
      ],
      "name": "addReview",
      "outputs": [],
      "payable": false,
      "stateMutability": "nonpayable",
      "type": "function",
      "signature": "0xa65ef9f0"
    },
    {
      "constant": true,
      "inputs": [
        {
          "name": "s",
          "type": "string"
        },
        {
          "name": "k",
          "type": "uint256"
        }
      ],
      "name": "updateShopScore",
      "outputs": [],
      "payable": false,
      "stateMutability": "view",
      "type": "function",
      "signature": "0xe2407598"
    },
    {
      "constant": false,
      "inputs": [
        {
          "name": "t",
          "type": "uint256"
        }
      ],
      "name": "addPeerReviews",
      "outputs": [],
      "payable": false,
      "stateMutability": "nonpayable",
      "type": "function",
      "signature": "0x2b9b64ea"
    },
    {
      "constant": true,
      "inputs": [
        {
          "name": "i",
          "type": "uint256"
        },
        {
          "name": "j",
          "type": "uint256"
        }
      ],
      "name": "getPeerReviews",
      "outputs": [
        {
          "name": "",
          "type": "uint256"
        },
        {
          "name": "",
          "type": "uint256"
        },
        {
          "name": "",
          "type": "uint256"
        }
      ],
      "payable": false,
      "stateMutability": "view",
      "type": "function",
      "signature": "0x0777f9d6"
    },
    {
      "constant": false,
      "inputs": [
        {
          "name": "i",
          "type": "uint256"
        }
      ],
      "name": "updateReviewerScore",
      "outputs": [],
      "payable": false,
      "stateMutability": "nonpayable",
      "type": "function",
      "signature": "0x45bac5dc"
    },
    {
      "constant": true,
      "inputs": [],
      "name": "calcPeerReviewScore",
      "outputs": [
        {
          "name": "",
          "type": "uint256"
        }
      ],
      "payable": false,
      "stateMutability": "pure",
      "type": "function",
      "signature": "0xe0c5d7ec"
    },
    {
      "constant": false,
      "inputs": [],
      "name": "addChecker",
      "outputs": [],
      "payable": false,
      "stateMutability": "nonpayable",
      "type": "function",
      "signature": "0x0b7f8943"
    }
  ],
  "bytecode": "0x60806040523480156200001157600080fd5b506000808190555060006001819055506000600281905550600a6040519080825280602002602001820160405280156200006057816020015b60608152602001906001900390816200004a5790505b5060039080519060200190620000789291906200011b565b506200009262000098640100000000026401000000009004565b620002a2565b60008090505b600a8110156200011857600a604051908082528060200260200182016040528015620000d95781602001602082028038833980820191505090505b50600382815481101515620000ea57fe5b9060005260206000200190805190602001906200010992919062000182565b5080806001019150506200009e565b50565b8280548282559060005260206000209081019282156200016f579160200282015b828111156200016e5782518290805190602001906200015d929190620001d4565b50916020019190600101906200013c565b5b5090506200017e919062000226565b5090565b828054828255906000526020600020908101928215620001c1579160200282015b82811115620001c0578251825591602001919060010190620001a3565b5b509050620001d0919062000257565b5090565b82805482825590600052602060002090810192821562000213579160200282015b8281111562000212578251825591602001919060010190620001f5565b5b50905062000222919062000257565b5090565b6200025491905b808211156200025057600081816200024691906200027f565b506001016200022d565b5090565b90565b6200027c91905b80821115620002785760008160009055506001016200025e565b5090565b90565b50805460008255906000526020600020908101906200029f919062000257565b50565b611ba280620002b26000396000f3fe6080604052600436106100db576000357c0100000000000000000000000000000000000000000000000000000000900463ffffffff1680630777f9d6146100e05780630b7f8943146101475780630c1fa2bc1461015e5780632b9b64ea1461022657806331d4655c1461026157806345bac5dc1461034f578063713aca741461038a57806382a8181b1461043e578063a65ef9f014610455578063a9ccf5c4146105be578063e0c5d7ec14610686578063e2407598146106b1578063e2f1868b14610783578063f52d106d146107ae578063fa28dc0b146107d9575b600080fd5b3480156100ec57600080fd5b506101236004803603604081101561010357600080fd5b810190808035906020019092919080359060200190929190505050610954565b60405180848152602001838152602001828152602001935050505060405180910390f35b34801561015357600080fd5b5061015c610999565b005b34801561016a57600080fd5b506102246004803603602081101561018157600080fd5b810190808035906020019064010000000081111561019e57600080fd5b8201836020820111156101b057600080fd5b803590602001918460018302840111640100000000831117156101d257600080fd5b91908080601f016020809104026020016040519081016040528093929190818152602001838380828437600081840152601f19601f820116905080830192505050505050509192919290505050610a79565b005b34801561023257600080fd5b5061025f6004803603602081101561024957600080fd5b8101908080359060200190929190505050610be7565b005b34801561026d57600080fd5b5061029a6004803603602081101561028457600080fd5b8101908080359060200190929190505050610efd565b60405180848152602001806020018373ffffffffffffffffffffffffffffffffffffffff1673ffffffffffffffffffffffffffffffffffffffff168152602001828103825284818151815260200191508051906020019080838360005b838110156103125780820151818401526020810190506102f7565b50505050905090810190601f16801561033f5780820380516001836020036101000a031916815260200191505b5094505050505060405180910390f35b34801561035b57600080fd5b506103886004803603602081101561037257600080fd5b8101908080359060200190929190505050611062565b005b34801561039657600080fd5b506103c3600480360360208110156103ad57600080fd5b810190808035906020019092919050505061108d565b6040518080602001828103825283818151815260200191508051906020019080838360005b838110156104035780820151818401526020810190506103e8565b50505050905090810190601f1680156104305780820380516001836020036101000a031916815260200191505b509250505060405180910390f35b34801561044a57600080fd5b50610453611148565b005b34801561046157600080fd5b506105bc6004803603606081101561047857600080fd5b810190808035906020019064010000000081111561049557600080fd5b8201836020820111156104a757600080fd5b803590602001918460018302840111640100000000831117156104c957600080fd5b91908080601f016020809104026020016040519081016040528093929190818152602001838380828437600081840152601f19601f820116905080830192505050505050509192919290803590602001909291908035906020019064010000000081111561053657600080fd5b82018360208201111561054857600080fd5b8035906020019184600183028401116401000000008311171561056a57600080fd5b91908080601f016020809104026020016040519081016040528093929190818152602001838380828437600081840152601f19601f8201169050808301925050505050505091929192905050506111c5565b005b3480156105ca57600080fd5b50610684600480360360208110156105e157600080fd5b81019080803590602001906401000000008111156105fe57600080fd5b82018360208201111561061057600080fd5b8035906020019184600183028401116401000000008311171561063257600080fd5b91908080601f016020809104026020016040519081016040528093929190818152602001838380828437600081840152601f19601f820116905080830192505050505050509192919290505050611485565b005b34801561069257600080fd5b5061069b6115c8565b6040518082815260200191505060405180910390f35b3480156106bd57600080fd5b50610781600480360360408110156106d457600080fd5b81019080803590602001906401000000008111156106f157600080fd5b82018360208201111561070357600080fd5b8035906020019184600183028401116401000000008311171561072557600080fd5b91908080601f016020809104026020016040519081016040528093929190818152602001838380828437600081840152601f19601f820116905080830192505050505050509192919290803590602001909291905050506115d1565b005b34801561078f57600080fd5b50610798611769565b6040518082815260200191505060405180910390f35b3480156107ba57600080fd5b506107c3611773565b6040518082815260200191505060405180910390f35b3480156107e557600080fd5b5061089f600480360360208110156107fc57600080fd5b810190808035906020019064010000000081111561081957600080fd5b82018360208201111561082b57600080fd5b8035906020019184600183028401116401000000008311171561084d57600080fd5b91908080601f016020809104026020016040519081016040528093929190818152602001838380828437600081840152601f19601f82011690508083019250505050505050919291929050505061177c565b60405180848152602001806020018373ffffffffffffffffffffffffffffffffffffffff1673ffffffffffffffffffffffffffffffffffffffff168152602001828103825284818151815260200191508051906020019080838360005b838110156109175780820151818401526020810190506108fc565b50505050905090810190601f1680156109445780820380516001836020036101000a031916815260200191505b5094505050505060405180910390f35b600080600060038581548110151561096857fe5b906000526020600020018481548110151561097f57fe5b906000526020600020015485859250925092509250925092565b6109a1611925565b606060405190810160405280600181526020013373ffffffffffffffffffffffffffffffffffffffff1681526020016002548152509050600981908060018154018082558091505090600182039060005260206000209060030201600090919290919091506000820151816000015560208201518160010160006101000a81548173ffffffffffffffffffffffffffffffffffffffff021916908373ffffffffffffffffffffffffffffffffffffffff1602179055506040820151816002015550505060026000815480929190600101919050555050565b6005819080600181540180825580915050906001820390600052602060002001600090919290919091509080519060200190610ab692919061195d565b5050610ac06119dd565b606060405190810160405280600081526020018381526020013373ffffffffffffffffffffffffffffffffffffffff168152509050806004836040518082805190602001908083835b602083101515610b2e5780518252602082019150602081019050602083039250610b09565b6001836020036101000a0380198251168184511680821785525050505050509050019150509081526020016040518091039020600082015181600001556020820151816001019080519060200190610b87929190611a15565b5060408201518160020160006101000a81548173ffffffffffffffffffffffffffffffffffffffff021916908373ffffffffffffffffffffffffffffffffffffffff16021790555090505060008081548092919060010191905055505050565b610bef611a95565b6006600083815260200190815260200160002060a0604051908101604052908160008201548152602001600182018054600181600116156101000203166002900480601f016020809104026020016040519081016040528092919081815260200182805460018160011615610100020316600290048015610cb15780601f10610c8657610100808354040283529160200191610cb1565b820191906000526020600020905b815481529060010190602001808311610c9457829003601f168201915b505050505081526020016002820160009054906101000a900473ffffffffffffffffffffffffffffffffffffffff1673ffffffffffffffffffffffffffffffffffffffff1673ffffffffffffffffffffffffffffffffffffffff1681526020016003820154815260200160048201548152505090506000600760003373ffffffffffffffffffffffffffffffffffffffff1673ffffffffffffffffffffffffffffffffffffffff168152602001908152602001600020549050610d72611a95565b6006600083815260200190815260200160002060a0604051908101604052908160008201548152602001600182018054600181600116156101000203166002900480601f016020809104026020016040519081016040528092919081815260200182805460018160011615610100020316600290048015610e345780601f10610e0957610100808354040283529160200191610e34565b820191906000526020600020905b815481529060010190602001808311610e1757829003601f168201915b505050505081526020016002820160009054906101000a900473ffffffffffffffffffffffffffffffffffffffff1673ffffffffffffffffffffffffffffffffffffffff1673ffffffffffffffffffffffffffffffffffffffff16815260200160038201548152602001600482015481525050905080608001805180919060010181525050600160038460600151815481101515610ece57fe5b906000526020600020018260600151815481101515610ee957fe5b906000526020600020018190555050505050565b600060606000610f0b611a95565b6006600086815260200190815260200160002060a0604051908101604052908160008201548152602001600182018054600181600116156101000203166002900480601f016020809104026020016040519081016040528092919081815260200182805460018160011615610100020316600290048015610fcd5780601f10610fa257610100808354040283529160200191610fcd565b820191906000526020600020905b815481529060010190602001808311610fb057829003601f168201915b505050505081526020016002820160009054906101000a900473ffffffffffffffffffffffffffffffffffffffff1673ffffffffffffffffffffffffffffffffffffffff1673ffffffffffffffffffffffffffffffffffffffff168152602001600382015481526020016004820154815250509050806000015181602001518260400151819150935093509350509193909250565b600061106c6115c8565b90508060066000848152602001908152602001600020600001819055505050565b60058181548110151561109c57fe5b906000526020600020016000915090508054600181600116156101000203166002900480601f0160208091040260200160405190810160405280929190818152602001828054600181600116156101000203166002900480156111405780601f1061111557610100808354040283529160200191611140565b820191906000526020600020905b81548152906001019060200180831161112357829003601f168201915b505050505081565b60008090505b600a8110156111c257600a6040519080825280602002602001820160405280156111875781602001602082028038833980820191505090505b5060038281548110151561119757fe5b9060005260206000200190805190602001906111b4929190611adb565b50808060010191505061114e565b50565b6000600760003373ffffffffffffffffffffffffffffffffffffffff1673ffffffffffffffffffffffffffffffffffffffff168152602001908152602001600020549050611211611a95565b6006600083815260200190815260200160002060a0604051908101604052908160008201548152602001600182018054600181600116156101000203166002900480601f0160208091040260200160405190810160405280929190818152602001828054600181600116156101000203166002900480156112d35780601f106112a8576101008083540402835291602001916112d3565b820191906000526020600020905b8154815290600101906020018083116112b657829003601f168201915b505050505081526020016002820160009054906101000a900473ffffffffffffffffffffffffffffffffffffffff1673ffffffffffffffffffffffffffffffffffffffff1673ffffffffffffffffffffffffffffffffffffffff168152602001600382015481526020016004820154815250509050611350611b28565b608060405190810160405280868152602001878152602001836020015181526020018581525090506008866040518082805190602001908083835b6020831015156113b0578051825260208201915060208101905060208303925061138b565b6001836020036101000a03801982511681845116808217855250505050505090500191505090815260200160405180910390208190806001815401808255809150509060018203906000526020600020906004020160009091929091909150600082015181600001556020820151816001019080519060200190611435929190611a15565b506040820151816002019080519060200190611452929190611a15565b50606082015181600301908051906020019061146f929190611a15565b5050505061147d86866115d1565b505050505050565b61148d611a95565b60a060405190810160405280600081526020018381526020013373ffffffffffffffffffffffffffffffffffffffff1681526020016001548152602001600081525090508060066000600154815260200190815260200160002060008201518160000155602082015181600101908051906020019061150d929190611a15565b5060408201518160020160006101000a81548173ffffffffffffffffffffffffffffffffffffffff021916908373ffffffffffffffffffffffffffffffffffffffff1602179055506060820151816003015560808201518160040155905050600154600760003373ffffffffffffffffffffffffffffffffffffffff1673ffffffffffffffffffffffffffffffffffffffff168152602001908152602001600020819055506001600081548092919060010191905055505050565b60006001905090565b6115d96119dd565b6004836040518082805190602001908083835b60208310151561161157805182526020820191506020810190506020830392506115ec565b6001836020036101000a03801982511681845116808217855250505050505090500191505090815260200160405180910390206060604051908101604052908160008201548152602001600182018054600181600116156101000203166002900480601f0160208091040260200160405190810160405280929190818152602001828054600181600116156101000203166002900480156116f35780601f106116c8576101008083540402835291602001916116f3565b820191906000526020600020905b8154815290600101906020018083116116d657829003601f168201915b505050505081526020016002820160009054906101000a900473ffffffffffffffffffffffffffffffffffffffff1673ffffffffffffffffffffffffffffffffffffffff1673ffffffffffffffffffffffffffffffffffffffff1681525050905081816000018181510191508181525050505050565b6000600154905090565b60008054905090565b60006060600061178a6119dd565b6004856040518082805190602001908083835b6020831015156117c2578051825260208201915060208101905060208303925061179d565b6001836020036101000a03801982511681845116808217855250505050505090500191505090815260200160405180910390206060604051908101604052908160008201548152602001600182018054600181600116156101000203166002900480601f0160208091040260200160405190810160405280929190818152602001828054600181600116156101000203166002900480156118a45780601f10611879576101008083540402835291602001916118a4565b820191906000526020600020905b81548152906001019060200180831161188757829003601f168201915b505050505081526020016002820160009054906101000a900473ffffffffffffffffffffffffffffffffffffffff1673ffffffffffffffffffffffffffffffffffffffff1673ffffffffffffffffffffffffffffffffffffffff16815250509050806000015181602001518260400151819150935093509350509193909250565b60606040519081016040528060008152602001600073ffffffffffffffffffffffffffffffffffffffff168152602001600081525090565b828054600181600116156101000203166002900490600052602060002090601f016020900481019282601f1061199e57805160ff19168380011785556119cc565b828001600101855582156119cc579182015b828111156119cb5782518255916020019190600101906119b0565b5b5090506119d99190611b51565b5090565b6060604051908101604052806000815260200160608152602001600073ffffffffffffffffffffffffffffffffffffffff1681525090565b828054600181600116156101000203166002900490600052602060002090601f016020900481019282601f10611a5657805160ff1916838001178555611a84565b82800160010185558215611a84579182015b82811115611a83578251825591602001919060010190611a68565b5b509050611a919190611b51565b5090565b60a0604051908101604052806000815260200160608152602001600073ffffffffffffffffffffffffffffffffffffffff16815260200160008152602001600081525090565b828054828255906000526020600020908101928215611b17579160200282015b82811115611b16578251825591602001919060010190611afb565b5b509050611b249190611b51565b5090565b608060405190810160405280600081526020016060815260200160608152602001606081525090565b611b7391905b80821115611b6f576000816000905550600101611b57565b5090565b9056fea165627a7a72305820fb65b8b21617e3594e1fce762bb5b706183505b426252d4cc2a76cdc6fa8263e0029",
  "source": "pragma solidity  ^0.5.0;\n\ncontract Main {\n\n  uint private shopSize;\n  uint private reviewerSize;\n  uint private checkerSize;\n  uint[][] peerReviews;\n\n  constructor() public {\n    shopSize = 0;\n    reviewerSize = 0;\n    checkerSize = 0;\n    peerReviews = new uint[][](10);\n    initArray();\n  }\n\n  function initArray() public {\n    for(uint i = 0; i<10; i++) peerReviews[i] = new uint[](10);\n  }\n\n  struct Shop {\n    uint score;\n    string name;\n    address owner;\n  }\n\n  struct Reviewer {\n    uint score;\n    string name;\n    address owner;\n    uint id;\n    uint peerReviewNum;\n  }\n\n  struct Review {\n    uint score;\n    string shopName;\n    string reviewerName;\n    string comment;\n  }\n\n  struct Checker {\n    uint score;\n    address owner;\n    uint id;\n  }\n\n  //name <-> shop\n  mapping(string => Shop) private ShopDetails;\n\n  // shop name list\n  string[] public shops;\n\n  function addShop(string memory name) public {\n    shops.push(name);\n    Shop memory s = Shop(0,name,msg.sender);\n    ShopDetails[name] = s;\n    shopSize++;\n  }\n\n  function getShop(string memory name) public view returns (uint,string memory,address) {\n    Shop memory s = ShopDetails[name];\n    return (s.score, s.name, s.owner);\n  }\n\n  function getShopSize() public view returns (uint) {\n    return shopSize;\n  }\n\n  //id -> reviewer\n  mapping(uint => Reviewer) private reviewers;\n  //address -> id\n  mapping(address => uint) private idMap;\n\n  function addReviewer(string memory name) public {\n    Reviewer memory r = Reviewer(0,name,msg.sender,reviewerSize,0);\n    reviewers[reviewerSize] = r;\n    idMap[msg.sender] = reviewerSize;\n    reviewerSize++;\n  }\n\n  function getReviewer(uint a) public view returns (uint,string memory,address) {\n    Reviewer memory r = reviewers[a];\n    return (r.score, r.name, r.owner);\n  }\n\n  function getReviewerSize() public view returns (uint) {\n    return  reviewerSize;\n  }\n\n  //shop name <-> review list\n  mapping(string => Review[]) reviewMap;\n\n  function addReview(string memory reviewee, uint score, string memory comment) public {\n    //  checkReview(comment);\n      uint id = idMap[msg.sender];\n      Reviewer memory reviewer = reviewers[id];\n      Review memory review = Review(score,reviewee,reviewer.name,comment);\n      reviewMap[reviewee].push(review);\n      updateShopScore(reviewee,score);\n  }\n\n  // function getReview(string memory s, uint i) public view returns (Review memory) {\n  //     //Exception handling\n  //     return reviewMap[s][i];\n  // }\n\n  function updateShopScore(string memory s, uint k) public view {\n      Shop memory target = ShopDetails[s];\n      target.score += k;\n  }\n\n  function addPeerReviews(uint t) public{\n    //get reveiwee's detail\n    Reviewer memory target = reviewers[t];\n    //get reviewer's detail\n    uint id = idMap[msg.sender];\n    Reviewer memory reviewer = reviewers[id];\n    reviewer.peerReviewNum++;\n    peerReviews[target.id][reviewer.id] = 1;\n  }\n\n  function getPeerReviews(uint i, uint j) public view returns (uint, uint, uint) {\n    return (peerReviews[i][j], i, j);\n  }\n\n  function updateReviewerScore(uint i) public {\n      uint updatedScore = calcPeerReviewScore();\n      reviewers[i].score = updatedScore;\n  }\n\n  function calcPeerReviewScore() public pure returns (uint) {\n    // Checker memory c1 = selectChecker();\n    // Checker memory c2 = selectChecker();\n    // Checker memory c3 = selectChecker();\n    // checker\n    return 1;\n  }\n\n  // function selectChecker() public returns (Checker memory) {\n  //   uint i = block.timestamp;\n  //   uint random = i % checkerSize;\n  //   uint sum = 0;\n  //   for(uint j = 0; j < checkerSize; j++){\n  //     Checker memory c = checkers[i];\n  //     sum += c.score;\n  //     if(sum<random) return c;\n  //   }\n  // }\n\n  Checker[] checkers;\n  function addChecker() public {\n    Checker memory checker = Checker(1,msg.sender,checkerSize);\n    checkers.push(checker);\n    checkerSize++;\n  }\n}",
  "sourcePath": "/Users/admin/Desktop/Reviews/contracts/Main.sol",
  "compiler": {
    "name": "solc",
    "version": "0.5.0+commit.1d4f565a.Emscripten.clang"
  },
  "schemaVersion": "3.0.6",
  "updatedAt": "2019-05-25T08:58:51.080Z",
  "devdoc": {
    "methods": {}
  },
  "userdoc": {
    "methods": {}
  }
}