{
  "contractName": "Main",
  "abi": [
    {
      "constant": true,
      "inputs": [
        {
          "name": "",
          "type": "uint256"
        }
      ],
      "name": "shops",
      "outputs": [
        {
          "name": "",
          "type": "string"
        }
      ],
      "payable": false,
      "stateMutability": "view",
      "type": "function",
      "signature": "0x713aca74"
    },
    {
      "inputs": [],
      "payable": false,
      "stateMutability": "nonpayable",
      "type": "constructor",
      "signature": "constructor"
    },
    {
      "constant": false,
      "inputs": [
        {
          "name": "name",
          "type": "string"
        }
      ],
      "name": "addShop",
      "outputs": [],
      "payable": false,
      "stateMutability": "nonpayable",
      "type": "function",
      "signature": "0x0c1fa2bc"
    },
    {
      "constant": true,
      "inputs": [
        {
          "name": "name",
          "type": "string"
        }
      ],
      "name": "getShop",
      "outputs": [
        {
          "name": "",
          "type": "uint256"
        },
        {
          "name": "",
          "type": "string"
        },
        {
          "name": "",
          "type": "address"
        }
      ],
      "payable": false,
      "stateMutability": "view",
      "type": "function",
      "signature": "0xfa28dc0b"
    },
    {
      "constant": true,
      "inputs": [],
      "name": "getShopSize",
      "outputs": [
        {
          "name": "",
          "type": "uint256"
        }
      ],
      "payable": false,
      "stateMutability": "view",
      "type": "function",
      "signature": "0xf52d106d"
    },
    {
      "constant": false,
      "inputs": [
        {
          "name": "name",
          "type": "string"
        }
      ],
      "name": "addReviewer",
      "outputs": [],
      "payable": false,
      "stateMutability": "nonpayable",
      "type": "function",
      "signature": "0xa9ccf5c4"
    },
    {
      "constant": true,
      "inputs": [
        {
          "name": "a",
          "type": "address"
        }
      ],
      "name": "getReviewer",
      "outputs": [
        {
          "name": "",
          "type": "uint256"
        },
        {
          "name": "",
          "type": "string"
        },
        {
          "name": "",
          "type": "address"
        }
      ],
      "payable": false,
      "stateMutability": "view",
      "type": "function",
      "signature": "0x8979d901"
    },
    {
      "constant": true,
      "inputs": [],
      "name": "getReviewerSize",
      "outputs": [
        {
          "name": "",
          "type": "uint256"
        }
      ],
      "payable": false,
      "stateMutability": "view",
      "type": "function",
      "signature": "0xe2f1868b"
    },
    {
      "constant": false,
      "inputs": [
        {
          "name": "reviewee",
          "type": "string"
        },
        {
          "name": "score",
          "type": "uint256"
        },
        {
          "name": "comment",
          "type": "string"
        }
      ],
      "name": "addReview",
      "outputs": [],
      "payable": false,
      "stateMutability": "nonpayable",
      "type": "function",
      "signature": "0xa65ef9f0"
    },
    {
      "constant": true,
      "inputs": [
        {
          "name": "s",
          "type": "string"
        },
        {
          "name": "k",
          "type": "uint256"
        }
      ],
      "name": "updateShopScore",
      "outputs": [],
      "payable": false,
      "stateMutability": "view",
      "type": "function",
      "signature": "0xe2407598"
    },
    {
      "constant": true,
      "inputs": [
        {
          "name": "r",
          "type": "string"
        },
        {
          "name": "k",
          "type": "uint256"
        }
      ],
      "name": "updateReviewerScore",
      "outputs": [],
      "payable": false,
      "stateMutability": "view",
      "type": "function",
      "signature": "0x80498cbe"
    },
    {
      "constant": false,
      "inputs": [],
      "name": "getPeerReviews",
      "outputs": [
        {
          "name": "",
          "type": "uint256[]"
        }
      ],
      "payable": false,
      "stateMutability": "nonpayable",
      "type": "function",
      "signature": "0x72ac9d87"
    }
  ],
  "bytecode": "0x608060405234801561001057600080fd5b506000808190555060006001819055506118708061002f6000396000f3fe6080604052600436106100af576000357c0100000000000000000000000000000000000000000000000000000000900463ffffffff1680630c1fa2bc146100b4578063713aca741461017c57806372ac9d871461023057806380498cbe1461029c5780638979d9011461036e578063a65ef9f014610472578063a9ccf5c4146105db578063e2407598146106a3578063e2f1868b14610775578063f52d106d146107a0578063fa28dc0b146107cb575b600080fd5b3480156100c057600080fd5b5061017a600480360360208110156100d757600080fd5b81019080803590602001906401000000008111156100f457600080fd5b82018360208201111561010657600080fd5b8035906020019184600183028401116401000000008311171561012857600080fd5b91908080601f016020809104026020016040519081016040528093929190818152602001838380828437600081840152601f19601f820116905080830192505050505050509192919290505050610946565b005b34801561018857600080fd5b506101b56004803603602081101561019f57600080fd5b8101908080359060200190929190505050610ab4565b6040518080602001828103825283818151815260200191508051906020019080838360005b838110156101f55780820151818401526020810190506101da565b50505050905090810190601f1680156102225780820380516001836020036101000a031916815260200191505b509250505060405180910390f35b34801561023c57600080fd5b50610245610b6f565b6040518080602001828103825283818151815260200191508051906020019060200280838360005b8381101561028857808201518184015260208101905061026d565b505050509050019250505060405180910390f35b3480156102a857600080fd5b5061036c600480360360408110156102bf57600080fd5b81019080803590602001906401000000008111156102dc57600080fd5b8201836020820111156102ee57600080fd5b8035906020019184600183028401116401000000008311171561031057600080fd5b91908080601f016020809104026020016040519081016040528093929190818152602001838380828437600081840152601f19601f82011690508083019250505050505050919291929080359060200190929190505050610c21565b005b34801561037a57600080fd5b506103bd6004803603602081101561039157600080fd5b81019080803573ffffffffffffffffffffffffffffffffffffffff169060200190929190505050610e1e565b60405180848152602001806020018373ffffffffffffffffffffffffffffffffffffffff1673ffffffffffffffffffffffffffffffffffffffff168152602001828103825284818151815260200191508051906020019080838360005b8381101561043557808201518184015260208101905061041a565b50505050905090810190601f1680156104625780820380516001836020036101000a031916815260200191505b5094505050505060405180910390f35b34801561047e57600080fd5b506105d96004803603606081101561049557600080fd5b81019080803590602001906401000000008111156104b257600080fd5b8201836020820111156104c457600080fd5b803590602001918460018302840111640100000000831117156104e657600080fd5b91908080601f016020809104026020016040519081016040528093929190818152602001838380828437600081840152601f19601f820116905080830192505050505050509192919290803590602001909291908035906020019064010000000081111561055357600080fd5b82018360208201111561056557600080fd5b8035906020019184600183028401116401000000008311171561058757600080fd5b91908080601f016020809104026020016040519081016040528093929190818152602001838380828437600081840152601f19601f820116905080830192505050505050509192919290505050610f9b565b005b3480156105e757600080fd5b506106a1600480360360208110156105fe57600080fd5b810190808035906020019064010000000081111561061b57600080fd5b82018360208201111561062d57600080fd5b8035906020019184600183028401116401000000008311171561064f57600080fd5b91908080601f016020809104026020016040519081016040528093929190818152602001838380828437600081840152601f19601f82011690508083019250505050505050919291929050505061122e565b005b3480156106af57600080fd5b50610773600480360360408110156106c657600080fd5b81019080803590602001906401000000008111156106e357600080fd5b8201836020820111156106f557600080fd5b8035906020019184600183028401116401000000008311171561071757600080fd5b91908080601f016020809104026020016040519081016040528093929190818152602001838380828437600081840152601f19601f82011690508083019250505050505050919291929080359060200190929190505050611332565b005b34801561078157600080fd5b5061078a6114ca565b6040518082815260200191505060405180910390f35b3480156107ac57600080fd5b506107b56114d4565b6040518082815260200191505060405180910390f35b3480156107d757600080fd5b50610891600480360360208110156107ee57600080fd5b810190808035906020019064010000000081111561080b57600080fd5b82018360208201111561081d57600080fd5b8035906020019184600183028401116401000000008311171561083f57600080fd5b91908080601f016020809104026020016040519081016040528093929190818152602001838380828437600081840152601f19601f8201169050808301925050505050505091929192905050506114dd565b60405180848152602001806020018373ffffffffffffffffffffffffffffffffffffffff1673ffffffffffffffffffffffffffffffffffffffff168152602001828103825284818151815260200191508051906020019080838360005b838110156109095780820151818401526020810190506108ee565b50505050905090810190601f1680156109365780820380516001836020036101000a031916815260200191505b5094505050505060405180910390f35b6003819080600181540180825580915050906001820390600052602060002001600090919290919091509080519060200190610983929190611686565b505061098d611706565b606060405190810160405280600081526020018381526020013373ffffffffffffffffffffffffffffffffffffffff168152509050806002836040518082805190602001908083835b6020831015156109fb57805182526020820191506020810190506020830392506109d6565b6001836020036101000a0380198251168184511680821785525050505050509050019150509081526020016040518091039020600082015181600001556020820151816001019080519060200190610a5492919061173e565b5060408201518160020160006101000a81548173ffffffffffffffffffffffffffffffffffffffff021916908373ffffffffffffffffffffffffffffffffffffffff16021790555090505060008081548092919060010191905055505050565b600381815481101515610ac357fe5b906000526020600020016000915090508054600181600116156101000203166002900480601f016020809104026020016040519081016040528092919081815260200182805460018160011615610100020316600290048015610b675780601f10610b3c57610100808354040283529160200191610b67565b820191906000526020600020905b815481529060010190602001808311610b4a57829003601f168201915b505050505081565b60606008606f90806001815401808255809150509060018203906000526020600020016000909192909190915055506008607b90806001815401808255809150509060018203906000526020600020016000909192909190915055506008805480602002602001604051908101604052809291908181526020018280548015610c1757602002820191906000526020600020905b815481526020019060010190808311610c03575b5050505050905090565b60006005836040518082805190602001908083835b602083101515610c5b5780518252602082019150602081019050602083039250610c36565b6001836020036101000a038019825116818451168082178552505050505050905001915050908152602001604051809103902060009054906101000a900473ffffffffffffffffffffffffffffffffffffffff169050610cb96117be565b600460008373ffffffffffffffffffffffffffffffffffffffff1673ffffffffffffffffffffffffffffffffffffffff1681526020019081526020016000206060604051908101604052908160008201548152602001600182018054600181600116156101000203166002900480601f016020809104026020016040519081016040528092919081815260200182805460018160011615610100020316600290048015610da75780601f10610d7c57610100808354040283529160200191610da7565b820191906000526020600020905b815481529060010190602001808311610d8a57829003601f168201915b505050505081526020016002820160009054906101000a900473ffffffffffffffffffffffffffffffffffffffff1673ffffffffffffffffffffffffffffffffffffffff1673ffffffffffffffffffffffffffffffffffffffff168152505090508281600001818151019150818152505050505050565b600060606000610e2c6117be565b600460008673ffffffffffffffffffffffffffffffffffffffff1673ffffffffffffffffffffffffffffffffffffffff1681526020019081526020016000206060604051908101604052908160008201548152602001600182018054600181600116156101000203166002900480601f016020809104026020016040519081016040528092919081815260200182805460018160011615610100020316600290048015610f1a5780601f10610eef57610100808354040283529160200191610f1a565b820191906000526020600020905b815481529060010190602001808311610efd57829003601f168201915b505050505081526020016002820160009054906101000a900473ffffffffffffffffffffffffffffffffffffffff1673ffffffffffffffffffffffffffffffffffffffff1673ffffffffffffffffffffffffffffffffffffffff16815250509050806000015181602001518260400151819150935093509350509193909250565b610fa36117be565b600460003373ffffffffffffffffffffffffffffffffffffffff1673ffffffffffffffffffffffffffffffffffffffff1681526020019081526020016000206060604051908101604052908160008201548152602001600182018054600181600116156101000203166002900480601f0160208091040260200160405190810160405280929190818152602001828054600181600116156101000203166002900480156110915780601f1061106657610100808354040283529160200191611091565b820191906000526020600020905b81548152906001019060200180831161107457829003601f168201915b505050505081526020016002820160009054906101000a900473ffffffffffffffffffffffffffffffffffffffff1673ffffffffffffffffffffffffffffffffffffffff1673ffffffffffffffffffffffffffffffffffffffff168152505090506110fa6117f6565b608060405190810160405280858152602001868152602001836020015181526020018481525090506006856040518082805190602001908083835b60208310151561115a5780518252602082019150602081019050602083039250611135565b6001836020036101000a038019825116818451168082178552505050505050905001915050908152602001604051809103902081908060018154018082558091505090600182039060005260206000209060040201600090919290919091506000820151816000015560208201518160010190805190602001906111df92919061173e565b5060408201518160020190805190602001906111fc92919061173e565b50606082015181600301908051906020019061121992919061173e565b505050506112278585611332565b5050505050565b6112366117be565b606060405190810160405280600081526020018381526020013373ffffffffffffffffffffffffffffffffffffffff16815250905080600460003373ffffffffffffffffffffffffffffffffffffffff1673ffffffffffffffffffffffffffffffffffffffff1681526020019081526020016000206000820151816000015560208201518160010190805190602001906112d192919061173e565b5060408201518160020160006101000a81548173ffffffffffffffffffffffffffffffffffffffff021916908373ffffffffffffffffffffffffffffffffffffffff1602179055509050506001600081548092919060010191905055505050565b61133a611706565b6002836040518082805190602001908083835b602083101515611372578051825260208201915060208101905060208303925061134d565b6001836020036101000a03801982511681845116808217855250505050505090500191505090815260200160405180910390206060604051908101604052908160008201548152602001600182018054600181600116156101000203166002900480601f0160208091040260200160405190810160405280929190818152602001828054600181600116156101000203166002900480156114545780601f1061142957610100808354040283529160200191611454565b820191906000526020600020905b81548152906001019060200180831161143757829003601f168201915b505050505081526020016002820160009054906101000a900473ffffffffffffffffffffffffffffffffffffffff1673ffffffffffffffffffffffffffffffffffffffff1673ffffffffffffffffffffffffffffffffffffffff1681525050905081816000018181510191508181525050505050565b6000600154905090565b60008054905090565b6000606060006114eb611706565b6002856040518082805190602001908083835b60208310151561152357805182526020820191506020810190506020830392506114fe565b6001836020036101000a03801982511681845116808217855250505050505090500191505090815260200160405180910390206060604051908101604052908160008201548152602001600182018054600181600116156101000203166002900480601f0160208091040260200160405190810160405280929190818152602001828054600181600116156101000203166002900480156116055780601f106115da57610100808354040283529160200191611605565b820191906000526020600020905b8154815290600101906020018083116115e857829003601f168201915b505050505081526020016002820160009054906101000a900473ffffffffffffffffffffffffffffffffffffffff1673ffffffffffffffffffffffffffffffffffffffff1673ffffffffffffffffffffffffffffffffffffffff16815250509050806000015181602001518260400151819150935093509350509193909250565b828054600181600116156101000203166002900490600052602060002090601f016020900481019282601f106116c757805160ff19168380011785556116f5565b828001600101855582156116f5579182015b828111156116f45782518255916020019190600101906116d9565b5b509050611702919061181f565b5090565b6060604051908101604052806000815260200160608152602001600073ffffffffffffffffffffffffffffffffffffffff1681525090565b828054600181600116156101000203166002900490600052602060002090601f016020900481019282601f1061177f57805160ff19168380011785556117ad565b828001600101855582156117ad579182015b828111156117ac578251825591602001919060010190611791565b5b5090506117ba919061181f565b5090565b6060604051908101604052806000815260200160608152602001600073ffffffffffffffffffffffffffffffffffffffff1681525090565b608060405190810160405280600081526020016060815260200160608152602001606081525090565b61184191905b8082111561183d576000816000905550600101611825565b5090565b9056fea165627a7a72305820b41657b151c10665a67b5966f5a24d106342dbae1b351da10cd281bc71c875360029",
  "source": "pragma solidity  ^0.5.0;\n\ncontract Main {\n\n  uint private shopSize;\n  uint private reviewerSize;\n\n  constructor() public {\n    shopSize = 0;\n    reviewerSize = 0;\n  }\n\n struct Shop {\n    uint score;\n    string name;\n    address owner;\n  }\n\n  struct Reviewer {\n    uint score;\n    string name;\n    address sender;\n  }\n\n  struct Review {\n    uint score;\n    string shopName;\n    string reviewerName;\n    string comment;\n  }\n\n  //name <-> shop\n  mapping(string => Shop) private ShopDetails;\n\n  // shop name list\n  string[] public shops;\n\n  function addShop(string memory name) public {\n    shops.push(name);\n    Shop memory s = Shop(0,name,msg.sender);\n    ShopDetails[name] = s;\n    shopSize++;\n  }\n\n  function getShop(string memory name) public view returns (uint,string memory,address) {\n    Shop memory s = ShopDetails[name];\n    return (s.score, s.name, s.owner);\n  }\n\n  function getShopSize() public view returns (uint) {\n    return shopSize;\n  }\n\n  //address <-> reviewer\n  mapping(address => Reviewer) private reviewers;\n  mapping(string => address) private reviewerMap;\n\n  function addReviewer(string memory name) public {\n    Reviewer memory r = Reviewer(0,name,msg.sender);\n    reviewers[msg.sender] = r;\n    reviewerSize++;\n  }\n\n  function getReviewer(address a) public view returns (uint,string memory,address) {\n    Reviewer memory r = reviewers[a];\n    return (r.score, r.name, r.sender);\n  }\n\n  function getReviewerSize() public view returns (uint) {\n    return  reviewerSize;\n  }\n\n  //shop name <-> review list\n  mapping(string => Review[]) reviewMap;\n\n  function addReview(string memory reviewee, uint score, string memory comment) public {\n      Reviewer memory reviewer = reviewers[msg.sender];\n      Review memory review = Review(score,reviewee,reviewer.name,comment);\n      reviewMap[reviewee].push(review);\n      updateShopScore(reviewee,score);\n  }\n\n  // function getReview(string memory s) public view returns (Review[]) {\n  //     //Exception handling\n  //     return reviewMap[s];\n  // }\n\n  function updateShopScore(string memory s, uint k) public view {\n      Shop memory target = ShopDetails[s];\n      target.score += k;\n  }\n\n  function updateReviewerScore(string memory r, uint k) public view{\n      address ta = reviewerMap[r];\n      Reviewer memory target = reviewers[ta];\n      target.score += k;\n  }\n\n  mapping(uint => uint[]) peerReviews;\n  uint[] a;\n  function getPeerReviews() public returns(uint[] memory){\n    a.push(111);\n    a.push(123);\n    return a;\n  }\n}",
  "sourcePath": "/Users/admin/Desktop/Reviews/contracts/Main.sol",
  "compiler": {
    "name": "solc",
    "version": "0.5.0+commit.1d4f565a.Emscripten.clang"
  },
  "schemaVersion": "3.0.6",
  "updatedAt": "2019-05-18T12:13:53.428Z",
  "devdoc": {
    "methods": {}
  },
  "userdoc": {
    "methods": {}
  }
}