{
  "contractName": "Main",
  "abi": [
    {
      "constant": true,
      "inputs": [
        {
          "name": "",
          "type": "uint256"
        }
      ],
      "name": "checkers",
      "outputs": [
        {
          "name": "adrs",
          "type": "address"
        }
      ],
      "payable": false,
      "stateMutability": "view",
      "type": "function"
    },
    {
      "anonymous": false,
      "inputs": [
        {
          "indexed": true,
          "name": "adr",
          "type": "address"
        },
        {
          "indexed": false,
          "name": "reviewer",
          "type": "string"
        },
        {
          "indexed": false,
          "name": "num",
          "type": "uint256"
        }
      ],
      "name": "notifyChecker",
      "type": "event"
    },
    {
      "anonymous": false,
      "inputs": [
        {
          "indexed": true,
          "name": "userName",
          "type": "string"
        },
        {
          "indexed": false,
          "name": "num",
          "type": "uint256"
        }
      ],
      "name": "checkDone",
      "type": "event"
    },
    {
      "constant": false,
      "inputs": [
        {
          "name": "_name",
          "type": "string"
        },
        {
          "name": "_adrs",
          "type": "address"
        }
      ],
      "name": "_addReviewer",
      "outputs": [],
      "payable": false,
      "stateMutability": "nonpayable",
      "type": "function"
    },
    {
      "constant": false,
      "inputs": [
        {
          "name": "_name",
          "type": "string"
        },
        {
          "name": "_adrs",
          "type": "address"
        }
      ],
      "name": "_addReviewee",
      "outputs": [],
      "payable": false,
      "stateMutability": "nonpayable",
      "type": "function"
    },
    {
      "constant": false,
      "inputs": [
        {
          "name": "_adrs",
          "type": "address"
        }
      ],
      "name": "_addChecker",
      "outputs": [],
      "payable": false,
      "stateMutability": "nonpayable",
      "type": "function"
    },
    {
      "constant": false,
      "inputs": [
        {
          "name": "_reviewer",
          "type": "string"
        },
        {
          "name": "_reviewee",
          "type": "string"
        },
        {
          "name": "_score",
          "type": "uint256"
        },
        {
          "name": "_sentence",
          "type": "string"
        }
      ],
      "name": "_addReview",
      "outputs": [],
      "payable": false,
      "stateMutability": "nonpayable",
      "type": "function"
    },
    {
      "constant": false,
      "inputs": [
        {
          "name": "_reviewer",
          "type": "string"
        },
        {
          "name": "_num",
          "type": "uint256"
        },
        {
          "name": "_judgement",
          "type": "bool"
        },
        {
          "name": "_adrs",
          "type": "address"
        }
      ],
      "name": "_checkReview",
      "outputs": [],
      "payable": false,
      "stateMutability": "nonpayable",
      "type": "function"
    },
    {
      "constant": false,
      "inputs": [
        {
          "name": "_reviewer",
          "type": "string"
        },
        {
          "name": "_num",
          "type": "uint256"
        }
      ],
      "name": "_addApproviedReview",
      "outputs": [],
      "payable": true,
      "stateMutability": "payable",
      "type": "function"
    },
    {
      "constant": false,
      "inputs": [
        {
          "name": "_to",
          "type": "address"
        },
        {
          "name": "amount",
          "type": "uint256"
        }
      ],
      "name": "_send",
      "outputs": [],
      "payable": false,
      "stateMutability": "nonpayable",
      "type": "function"
    },
    {
      "constant": false,
      "inputs": [
        {
          "name": "_from",
          "type": "string"
        },
        {
          "name": "_to",
          "type": "string"
        },
        {
          "name": "_timeStamp",
          "type": "uint256"
        }
      ],
      "name": "_addPeerReview",
      "outputs": [],
      "payable": false,
      "stateMutability": "nonpayable",
      "type": "function"
    }
  ],
  "bytecode": "0x608060405234801561001057600080fd5b506128e7806100206000396000f3fe608060405260043610610099576000357c0100000000000000000000000000000000000000000000000000000000900463ffffffff16806301f613471461009e5780630584fd8d1461019c578063310151371461021757806333feaf2e146102dc578063999ef22f146104455780639d0617f914610645578063af4fc465146106a0578063decb179614610788578063e7133cfe146107d9575b600080fd5b3480156100aa57600080fd5b5061019a600480360360808110156100c157600080fd5b81019080803590602001906401000000008111156100de57600080fd5b8201836020820111156100f057600080fd5b8035906020019184600183028401116401000000008311171561011257600080fd5b91908080601f016020809104026020016040519081016040528093929190818152602001838380828437600081840152601f19601f82011690508083019250505050505050919291929080359060200190929190803515159060200190929190803573ffffffffffffffffffffffffffffffffffffffff1690602001909291905050506108c1565b005b3480156101a857600080fd5b506101d5600480360360208110156101bf57600080fd5b8101908080359060200190929190505050610d4c565b604051808273ffffffffffffffffffffffffffffffffffffffff1673ffffffffffffffffffffffffffffffffffffffff16815260200191505060405180910390f35b6102da6004803603604081101561022d57600080fd5b810190808035906020019064010000000081111561024a57600080fd5b82018360208201111561025c57600080fd5b8035906020019184600183028401116401000000008311171561027e57600080fd5b91908080601f016020809104026020016040519081016040528093929190818152602001838380828437600081840152601f19601f82011690508083019250505050505050919291929080359060200190929190505050610d95565b005b3480156102e857600080fd5b50610443600480360360608110156102ff57600080fd5b810190808035906020019064010000000081111561031c57600080fd5b82018360208201111561032e57600080fd5b8035906020019184600183028401116401000000008311171561035057600080fd5b91908080601f016020809104026020016040519081016040528093929190818152602001838380828437600081840152601f19601f820116905080830192505050505050509192919290803590602001906401000000008111156103b357600080fd5b8201836020820111156103c557600080fd5b803590602001918460018302840111640100000000831117156103e757600080fd5b91908080601f016020809104026020016040519081016040528093929190818152602001838380828437600081840152601f19601f8201169050808301925050505050505091929192908035906020019092919050505061154e565b005b34801561045157600080fd5b506106436004803603608081101561046857600080fd5b810190808035906020019064010000000081111561048557600080fd5b82018360208201111561049757600080fd5b803590602001918460018302840111640100000000831117156104b957600080fd5b91908080601f016020809104026020016040519081016040528093929190818152602001838380828437600081840152601f19601f8201169050808301925050505050505091929192908035906020019064010000000081111561051c57600080fd5b82018360208201111561052e57600080fd5b8035906020019184600183028401116401000000008311171561055057600080fd5b91908080601f016020809104026020016040519081016040528093929190818152602001838380828437600081840152601f19601f82011690508083019250505050505050919291929080359060200190929190803590602001906401000000008111156105bd57600080fd5b8201836020820111156105cf57600080fd5b803590602001918460018302840111640100000000831117156105f157600080fd5b91908080601f016020809104026020016040519081016040528093929190818152602001838380828437600081840152601f19601f820116905080830192505050505050509192919290505050611693565b005b34801561065157600080fd5b5061069e6004803603604081101561066857600080fd5b81019080803573ffffffffffffffffffffffffffffffffffffffff16906020019092919080359060200190929190505050611c54565b005b3480156106ac57600080fd5b50610786600480360360408110156106c357600080fd5b81019080803590602001906401000000008111156106e057600080fd5b8201836020820111156106f257600080fd5b8035906020019184600183028401116401000000008311171561071457600080fd5b91908080601f016020809104026020016040519081016040528093929190818152602001838380828437600081840152601f19601f820116905080830192505050505050509192919290803573ffffffffffffffffffffffffffffffffffffffff169060200190929190505050611c9f565b005b34801561079457600080fd5b506107d7600480360360208110156107ab57600080fd5b81019080803573ffffffffffffffffffffffffffffffffffffffff169060200190929190505050611dbe565b005b3480156107e557600080fd5b506108bf600480360360408110156107fc57600080fd5b810190808035906020019064010000000081111561081957600080fd5b82018360208201111561082b57600080fd5b8035906020019184600183028401116401000000008311171561084d57600080fd5b91908080601f016020809104026020016040519081016040528093929190818152602001838380828437600081840152601f19601f820116905080830192505050505050509192919290803573ffffffffffffffffffffffffffffffffffffffff169060200190929190505050611e66565b005b60006007856040518082805190602001908083835b6020831015156108fb57805182526020820191506020810190506020830392506108d6565b6001836020036101000a03801982511681845116808217855250505050505090500191505090815260200160405180910390208481548110151561093b57fe5b90600052602060002090600a02019050828160040160008473ffffffffffffffffffffffffffffffffffffffff1673ffffffffffffffffffffffffffffffffffffffff16815260200190815260200160002060006101000a81548160ff0219169083151502179055508060090160008154809291906001019190505550600381600901541415610d45576109cd6125e3565b81600501602060405190810160405290816000820160009054906101000a900473ffffffffffffffffffffffffffffffffffffffff1673ffffffffffffffffffffffffffffffffffffffff1673ffffffffffffffffffffffffffffffffffffffff16815250509050610a3d6125e3565b82600601602060405190810160405290816000820160009054906101000a900473ffffffffffffffffffffffffffffffffffffffff1673ffffffffffffffffffffffffffffffffffffffff1673ffffffffffffffffffffffffffffffffffffffff16815250509050610aad6125e3565b83600701602060405190810160405290816000820160009054906101000a900473ffffffffffffffffffffffffffffffffffffffff1673ffffffffffffffffffffffffffffffffffffffff1673ffffffffffffffffffffffffffffffffffffffff16815250509050836004016000836000015173ffffffffffffffffffffffffffffffffffffffff1673ffffffffffffffffffffffffffffffffffffffff16815260200190815260200160002060009054906101000a900460ff161515846004016000856000015173ffffffffffffffffffffffffffffffffffffffff1673ffffffffffffffffffffffffffffffffffffffff16815260200190815260200160002060009054906101000a900460ff1615151415610c3857836004016000846000015173ffffffffffffffffffffffffffffffffffffffff1673ffffffffffffffffffffffffffffffffffffffff16815260200190815260200160002060009054906101000a900460ff168460080160006101000a81548160ff021916908315150217905550610ca7565b836004016000826000015173ffffffffffffffffffffffffffffffffffffffff1673ffffffffffffffffffffffffffffffffffffffff16815260200190815260200160002060009054906101000a900460ff168460080160006101000a81548160ff0219169083151502179055505b876040518082805190602001908083835b602083101515610cdd5780518252602082019150602081019050602083039250610cb8565b6001836020036101000a03801982511681845116808217855250505050505090500191505060405180910390207f8b138babcda653b0a2523237f94f74e4592b730bd547c3e8d8836e8448673627886040518082815260200191505060405180910390a25050505b5050505050565b600381815481101515610d5b57fe5b906000526020600020016000915090508060000160009054906101000a900473ffffffffffffffffffffffffffffffffffffffff16905081565b60006007836040518082805190602001908083835b602083101515610dcf5780518252602082019150602081019050602083039250610daa565b6001836020036101000a038019825116818451168082178552505050505050905001915050908152602001604051809103902082815481101515610e0f57fe5b90600052602060002090600a02019050610e2761260d565b6005826001016040518082805460018160011615610100020316600290048015610e885780601f10610e66576101008083540402835291820191610e88565b820191906000526020600020905b815481529060010190602001808311610e74575b5050915050908152602001604051809103902060606040519081016040529081600082018054600181600116156101000203166002900480601f016020809104026020016040519081016040528092919081815260200182805460018160011615610100020316600290048015610f405780601f10610f1557610100808354040283529160200191610f40565b820191906000526020600020905b815481529060010190602001808311610f2357829003601f168201915b505050505081526020016001820160009054906101000a900473ffffffffffffffffffffffffffffffffffffffff1673ffffffffffffffffffffffffffffffffffffffff1673ffffffffffffffffffffffffffffffffffffffff16815260200160028201548152505090506000600682600001516040518082805190602001908083835b602083101515610fe95780518252602082019150602081019050602083039250610fc4565b6001836020036101000a03801982511681845116808217855250505050505090500191505090815260200160405180910390208054905090506000600182018460020154838560400151020181151561103e57fe5b0490508083604001818152505060068460010160405180828054600181600116156101000203166002900480156110ac5780601f1061108a5761010080835404028352918201916110ac565b820191906000526020600020905b815481529060010190602001808311611098575b50509150509081526020016040518091039020849080600181540180825580915050906001820390600052602060002090600a02016000909192909190915060008201816000019080546001816001161561010002031660029004611112929190612645565b506001820181600101908054600181600116156101000203166002900461113a929190612645565b50600282015481600201556003820181600301908054600181600116156101000203166002900461116c929190612645565b5060058201816005016000820160009054906101000a900473ffffffffffffffffffffffffffffffffffffffff168160000160006101000a81548173ffffffffffffffffffffffffffffffffffffffff021916908373ffffffffffffffffffffffffffffffffffffffff160217905550505060068201816006016000820160009054906101000a900473ffffffffffffffffffffffffffffffffffffffff168160000160006101000a81548173ffffffffffffffffffffffffffffffffffffffff021916908373ffffffffffffffffffffffffffffffffffffffff160217905550505060078201816007016000820160009054906101000a900473ffffffffffffffffffffffffffffffffffffffff168160000160006101000a81548173ffffffffffffffffffffffffffffffffffffffff021916908373ffffffffffffffffffffffffffffffffffffffff16021790555050506008820160009054906101000a900460ff168160080160006101000a81548160ff021916908315150217905550600982015481600901555050508360080160009054906101000a900460ff1615158460040160008660050160000160009054906101000a900473ffffffffffffffffffffffffffffffffffffffff1673ffffffffffffffffffffffffffffffffffffffff1673ffffffffffffffffffffffffffffffffffffffff16815260200190815260200160002060009054906101000a900460ff16151514156113be576113bd8460050160000160009054906101000a900473ffffffffffffffffffffffffffffffffffffffff1634611c54565b5b8360080160009054906101000a900460ff1615158460040160008660060160000160009054906101000a900473ffffffffffffffffffffffffffffffffffffffff1673ffffffffffffffffffffffffffffffffffffffff1673ffffffffffffffffffffffffffffffffffffffff16815260200190815260200160002060009054906101000a900460ff1615151415611482576114818460060160000160009054906101000a900473ffffffffffffffffffffffffffffffffffffffff1634611c54565b5b8360080160009054906101000a900460ff1615158460040160008660070160000160009054906101000a900473ffffffffffffffffffffffffffffffffffffffff1673ffffffffffffffffffffffffffffffffffffffff1673ffffffffffffffffffffffffffffffffffffffff16815260200190815260200160002060009054906101000a900460ff1615151415611546576115458460070160000160009054906101000a900473ffffffffffffffffffffffffffffffffffffffff1634611c54565b5b505050505050565b6008836040518082805190602001908083835b6020831015156115865780518252602082019150602081019050602083039250611561565b6001836020036101000a03801982511681845116808217855250505050505090500191505090815260200160405180910390208290806001815401808255809150509060018203906000526020600020016000909192909190915090805190602001906115f49291906126cc565b505060016002846040518082805190602001908083835b602083101515611630578051825260208201915060208101905060208303925061160b565b6001836020036101000a038019825116818451168082178552505050505050905001915050908152602001604051809103902060006101000a81548160ff0219169083151502179055508060005414151561168e5761168d611fd5565b5b505050565b60006007856040518082805190602001908083835b6020831015156116cd57805182526020820191506020810190506020830392506116a8565b6001836020036101000a0380198251168184511680821785525050505050509050019150509081526020016040518091039020805490509050606061171183612420565b905061171b61274c565b6101206040519081016040528088815260200187815260200186815260200185815260200183600081518110151561174f57fe5b90602001906020020151815260200183600181518110151561176d57fe5b90602001906020020151815260200183600281518110151561178b57fe5b906020019060200201518152602001600015158152602001600081525090506007876040518082805190602001908083835b6020831015156117e257805182526020820191506020810190506020830392506117bd565b6001836020036101000a0380198251168184511680821785525050505050509050019150509081526020016040518091039020819080600181540180825580915050906001820390600052602060002090600a020160009091929091909150600082015181600001908051906020019061185d9291906127ad565b50602082015181600101908051906020019061187a9291906127ad565b506040820151816002015560608201518160030190805190602001906118a19291906127ad565b5060808201518160050160008201518160000160006101000a81548173ffffffffffffffffffffffffffffffffffffffff021916908373ffffffffffffffffffffffffffffffffffffffff160217905550505060a08201518160060160008201518160000160006101000a81548173ffffffffffffffffffffffffffffffffffffffff021916908373ffffffffffffffffffffffffffffffffffffffff160217905550505060c08201518160070160008201518160000160006101000a81548173ffffffffffffffffffffffffffffffffffffffff021916908373ffffffffffffffffffffffffffffffffffffffff160217905550505060e08201518160080160006101000a81548160ff02191690831515021790555061010082015181600901555050508160008151811015156119d557fe5b906020019060200201516000015173ffffffffffffffffffffffffffffffffffffffff167f6052b23ec14c054368e6061cdc3a2a6ef4ef49bd5577787246b6b3e0273f051588856040518080602001838152602001828103825284818151815260200191508051906020019080838360005b83811015611a62578082015181840152602081019050611a47565b50505050905090810190601f168015611a8f5780820380516001836020036101000a031916815260200191505b50935050505060405180910390a2816001815181101515611aac57fe5b906020019060200201516000015173ffffffffffffffffffffffffffffffffffffffff167f6052b23ec14c054368e6061cdc3a2a6ef4ef49bd5577787246b6b3e0273f051588856040518080602001838152602001828103825284818151815260200191508051906020019080838360005b83811015611b39578082015181840152602081019050611b1e565b50505050905090810190601f168015611b665780820380516001836020036101000a031916815260200191505b50935050505060405180910390a2816002815181101515611b8357fe5b906020019060200201516000015173ffffffffffffffffffffffffffffffffffffffff167f6052b23ec14c054368e6061cdc3a2a6ef4ef49bd5577787246b6b3e0273f051588856040518080602001838152602001828103825284818151815260200191508051906020019080838360005b83811015611c10578082015181840152602081019050611bf5565b50505050905090810190601f168015611c3d5780820380516001836020036101000a031916815260200191505b50935050505060405180910390a250505050505050565b8173ffffffffffffffffffffffffffffffffffffffff166108fc829081150290604051600060405180830381858888f19350505050158015611c9a573d6000803e3d6000fd5b505050565b611ca761260d565b6060604051908101604052808481526020018373ffffffffffffffffffffffffffffffffffffffff16815260200160008152509050806005846040518082805190602001908083835b602083101515611d155780518252602082019150602081019050602083039250611cf0565b6001836020036101000a03801982511681845116808217855250505050505090500191505090815260200160405180910390206000820151816000019080519060200190611d649291906127ad565b5060208201518160010160006101000a81548173ffffffffffffffffffffffffffffffffffffffff021916908373ffffffffffffffffffffffffffffffffffffffff16021790555060408201518160020155905050505050565b611dc66125e3565b6020604051908101604052808373ffffffffffffffffffffffffffffffffffffffff16815250905060038190806001815401808255809150509060018203906000526020600020016000909192909190915060008201518160000160006101000a81548173ffffffffffffffffffffffffffffffffffffffff021916908373ffffffffffffffffffffffffffffffffffffffff1602179055505050505050565b611e6e61282d565b6080604051908101604052808481526020018373ffffffffffffffffffffffffffffffffffffffff16815260200160648152602001600081525090506001839080600181540180825580915050906001820390600052602060002001600090919290919091509080519060200190611ee79291906126cc565b5050806004846040518082805190602001908083835b602083101515611f225780518252602082019150602081019050602083039250611efd565b6001836020036101000a03801982511681845116808217855250505050505090500191505090815260200160405180910390206000820151816000019080519060200190611f719291906127ad565b5060208201518160010160006101000a81548173ffffffffffffffffffffffffffffffffffffffff021916908373ffffffffffffffffffffffffffffffffffffffff1602179055506040820151816002015560608201518160030155905050505050565b60008090505b60018054905081101561235757600015156002600183815481101515611ffd57fe5b9060005260206000200160405180828054600181600116156101000203166002900480156120625780601f10612040576101008083540402835291820191612062565b820191906000526020600020905b81548152906001019060200180831161204e575b5050915050908152602001604051809103902060009054906101000a900460ff16151514156120905761234a565b606060086001838154811015156120a357fe5b9060005260206000200160405180828054600181600116156101000203166002900480156121085780601f106120e6576101008083540402835291820191612108565b820191906000526020600020905b8154815290600101906020018083116120f4575b50509150509081526020016040518091039020805480602002602001604051908101604052809291908181526020016000905b828210156121f7578382906000526020600020018054600181600116156101000203166002900480601f0160208091040260200160405190810160405280929190818152602001828054600181600116156101000203166002900480156121e35780601f106121b8576101008083540402835291602001916121e3565b820191906000526020600020905b8154815290600101906020018083116121c657829003601f168201915b50505050508152602001906001019061213b565b50505050905060008090505b81518110156123475760006004838381518110151561221e57fe5b906020019060200201516040518082805190602001908083835b60208310151561225d5780518252602082019150602081019050602083039250612238565b6001836020036101000a03801982511681845116808217855250505050505090500191505090815260200160405180910390209050825160046001868154811015156122a557fe5b90600052602060002001604051808280546001816001161561010002031660029004801561230a5780601f106122e857610100808354040283529182019161230a565b820191906000526020600020905b8154815290600101906020018083116122f6575b505091505090815260200160405180910390206002015481151561232a57fe5b048160030154018160030181905550508080600101915050612203565b50505b8080600101915050611fdb565b5060008090505b60018054905081101561241d576000600460018381548110151561237e57fe5b9060005260206000200160405180828054600181600116156101000203166002900480156123e35780601f106123c15761010080835404028352918201916123e3565b820191906000526020600020905b8154815290600101906020018083116123cf575b505091505090815260200160405180910390209050806003015481600201819055506000816003018190555050808060010191505061235e565b50565b606080600360405190808252806020026020018201604052801561245e57816020015b61244b61286c565b8152602001906001900390816124435790505b50905060008090505b600381101561253b57600061247b85612545565b90506124856125e3565b6003606484840181151561249557fe5b068154811015156124a257fe5b90600052602060002001602060405190810160405290816000820160009054906101000a900473ffffffffffffffffffffffffffffffffffffffff1673ffffffffffffffffffffffffffffffffffffffff1673ffffffffffffffffffffffffffffffffffffffff1681525050905080848481518110151561251f57fe5b9060200190602002018190525050508080600101915050612467565b5080915050919050565b600080826040516020018080602001828103825283818151815260200191508051906020019080838360005b8381101561258c578082015181840152602081019050612571565b50505050905090810190601f1680156125b95780820380516001836020036101000a031916815260200191505b50925050506040516020818303038152906040528051906020012060019004905080915050919050565b602060405190810160405280600073ffffffffffffffffffffffffffffffffffffffff1681525090565b60606040519081016040528060608152602001600073ffffffffffffffffffffffffffffffffffffffff168152602001600081525090565b828054600181600116156101000203166002900490600052602060002090601f016020900481019282601f1061267e57805485556126bb565b828001600101855582156126bb57600052602060002091601f016020900482015b828111156126ba57825482559160010191906001019061269f565b5b5090506126c89190612896565b5090565b828054600181600116156101000203166002900490600052602060002090601f016020900481019282601f1061270d57805160ff191683800117855561273b565b8280016001018555821561273b579182015b8281111561273a57825182559160200191906001019061271f565b5b5090506127489190612896565b5090565b610120604051908101604052806060815260200160608152602001600081526020016060815260200161277d61286c565b815260200161278a61286c565b815260200161279761286c565b8152602001600015158152602001600081525090565b828054600181600116156101000203166002900490600052602060002090601f016020900481019282601f106127ee57805160ff191683800117855561281c565b8280016001018555821561281c579182015b8281111561281b578251825591602001919060010190612800565b5b5090506128299190612896565b5090565b60806040519081016040528060608152602001600073ffffffffffffffffffffffffffffffffffffffff16815260200160008152602001600081525090565b602060405190810160405280600073ffffffffffffffffffffffffffffffffffffffff1681525090565b6128b891905b808211156128b457600081600090555060010161289c565b5090565b9056fea165627a7a7230582089323db7560e9e17dae3f7491b3334a8cae4cc901a7951f7c6e94879574e98ae0029",
  "source": "pragma solidity  ^0.5.0;\n\ncontract Main {\n    uint constant numOfReviewees = 1;\n\n    uint constant numOfCheckers = 3;\n\n    uint constant numOfAllCheckers = 100;\n\n    // 11/17 -> 1117\n    uint lastCalcTimeStamp;\n\n  struct Review {\n      string reviewer;\n      string reviewee;\n      uint score;\n      string sentence;\n      mapping(address => bool) checkerToApproval;\n      Checker checker1;\n      Checker checker2;\n      Checker checker3;\n      bool isApproved;\n      uint checkCnt;\n  }\n\n  struct Reviewer {\n    string name;\n    address adrs;\n    // initiated with 100.\n    uint score;\n    uint newScore;\n  }\n\n  struct Reviewee {\n    string name;\n    address adrs;\n    uint score;\n  }\n\n  struct Checker {\n    address payable adrs;\n  }\n\n  string[] private reviewers;\n\n  mapping(string => bool) reviewerHasPR;\n \n  Checker[] public  checkers;\n\n  mapping (string => Reviewer) nameToReviewer;\n\n  mapping(string => Reviewee) nameToReviewee;\n\n  mapping(string => Review[]) revieweeToReview;\n\n  mapping(string => Review[]) reviewerToReview;\n\n  mapping(string => string[]) graph;\n\n  // constructor() public {\n  // }\n\n  event notifyChecker(address indexed adr, string reviewer, uint num);\n\n  event checkDone(string indexed userName, uint num);\n\n  function _addReviewer(string memory _name, address _adrs) public {\n    Reviewer memory reviewer = Reviewer(_name, _adrs, 100, 0);\n    reviewers.push(_name);\n    nameToReviewer[_name] = reviewer;\n  }\n\n  function _addReviewee(string memory _name, address _adrs) public {\n    Reviewee memory reviewee = Reviewee(_name,_adrs, 0);\n    nameToReviewee[_name] = reviewee;\n  }\n\n  function _addChecker(address payable _adrs) public {\n    Checker memory checker = Checker(_adrs);\n    checkers.push(checker);\n  }\n\n  function _generateRandomNumber(string memory _str) private pure returns (uint) {\n      uint rand = uint(keccak256(abi.encode(_str)));\n      return rand;\n  }\n\n  function _addReview(string memory _reviewer, string memory _reviewee, uint _score, string memory _sentence) public {\n    uint num = reviewerToReview[_reviewer].length;\n    Checker[] memory selectedCheckers = _selectCheckers(_sentence);\n    Review memory review = Review(_reviewer, _reviewee, _score, _sentence, selectedCheckers[0],\n                                                        selectedCheckers[1], selectedCheckers[2],false, 0);\n    reviewerToReview[_reviewer].push(review);\n    emit notifyChecker(selectedCheckers[0].adrs, _reviewer, num);\n    emit notifyChecker(selectedCheckers[1].adrs, _reviewer, num);\n    emit notifyChecker(selectedCheckers[2].adrs, _reviewer, num);\n  }\n\n  function _selectCheckers(string memory _sentence) private view returns (Checker[] memory) {\n    Checker[] memory selectedCheckers = new Checker[](3);\n    for(uint i = 0; i < 3; i++) {\n      uint rand = _generateRandomNumber(_sentence);\n      Checker memory checker = checkers[(rand+i)%numOfAllCheckers];\n      selectedCheckers[i] = checker;\n    }\n    return selectedCheckers;\n  }\n\n  function _checkReview(string memory _reviewer, uint _num, bool _judgement, address _adrs) public {\n    Review storage review = reviewerToReview[_reviewer][_num];\n    review.checkerToApproval[_adrs] = _judgement;\n    review.checkCnt++;\n    if(review.checkCnt == numOfCheckers){\n      Checker memory checker1 = review.checker1;\n      Checker memory checker2 = review.checker2;\n      Checker memory checker3 = review.checker3;\n      if(review.checkerToApproval[checker1.adrs] == review.checkerToApproval[checker2.adrs]) review.isApproved = review.checkerToApproval[checker1.adrs];\n      else review.isApproved = review.checkerToApproval[checker3.adrs];\n      emit checkDone(_reviewer, _num);\n    }\n  }\n\n  function _addApproviedReview(string memory _reviewer, uint _num) public payable {\n    Review storage review = reviewerToReview[_reviewer][_num];\n    Reviewee memory reviewee = nameToReviewee[review.reviewee];\n    uint numOfReview = revieweeToReview[reviewee.name].length;\n    uint newScore = (reviewee.score * numOfReview + review.score) / (numOfReview + 1);\n    reviewee.score = newScore;\n    revieweeToReview[review.reviewee].push(review);\n    if(review.checkerToApproval[review.checker1.adrs] == review.isApproved) _send(review.checker1.adrs, msg.value);\n    if(review.checkerToApproval[review.checker2.adrs] == review.isApproved) _send(review.checker2.adrs, msg.value);\n    if(review.checkerToApproval[review.checker3.adrs] == review.isApproved) _send(review.checker3.adrs, msg.value);\n  }\n\n  function _send(address payable _to, uint amount) public {\n    _to.transfer(amount);\n  }\n\n  function _addPeerReview(string memory _from, string memory _to, uint _timeStamp) public {\n    graph[_from].push(_to);\n    reviewerHasPR[_from] = true;\n    if(lastCalcTimeStamp != _timeStamp){\n      _updateScore();\n    }\n  }\n\n  function _updateScore() private {\n    for(uint i = 0; i < reviewers.length; i++){\n      if(reviewerHasPR[reviewers[i]] == false) continue;\n      string[] memory rs = graph[reviewers[i]];\n      for(uint j = 0; j<rs.length; j++){\n        Reviewer storage r2 = nameToReviewer[rs[j]];\n        r2.newScore = r2.newScore + nameToReviewer[reviewers[i]].score / rs.length;\n      }\n    }\n    for(uint i = 0; i < reviewers.length; i++){\n      Reviewer storage reviewer = nameToReviewer[reviewers[i]];\n      reviewer.score = reviewer.newScore;\n      reviewer.newScore = 0;\n    }\n  }\n}",
  "sourcePath": "/Users/admin/Desktop/Reviews/contracts/Main.sol",
  "compiler": {
    "name": "solc",
    "version": "0.5.0+commit.1d4f565a.Emscripten.clang"
  },
  "schemaVersion": "3.0.6",
  "updatedAt": "2019-11-18T05:36:18.137Z",
  "devdoc": {
    "methods": {}
  },
  "userdoc": {
    "methods": {}
  }
}