{
  "contractName": "Review",
  "abi": [
    {
      "constant": false,
      "inputs": [
        {
          "name": "name",
          "type": "string"
        }
      ],
      "name": "addShop",
      "outputs": [],
      "payable": false,
      "stateMutability": "nonpayable",
      "type": "function",
      "signature": "0x0c1fa2bc"
    }
  ],
  "bytecode": "0x60806040526000805534801561001457600080fd5b506102a5806100246000396000f3fe608060405260043610610041576000357c0100000000000000000000000000000000000000000000000000000000900463ffffffff1680630c1fa2bc14610046575b600080fd5b34801561005257600080fd5b5061010c6004803603602081101561006957600080fd5b810190808035906020019064010000000081111561008657600080fd5b82018360208201111561009857600080fd5b803590602001918460018302840111640100000000831117156100ba57600080fd5b91908080601f016020809104026020016040519081016040528093929190818152602001838380828437600081840152601f19601f82011690508083019250505050505050919291929050505061010e565b005b6101166101af565b606060405190810160405280600060ff168152602001838152602001600054815250905080600160008054815260200190815260200160002060008201518160000160006101000a81548160ff021916908360ff160217905550602082015181600101908051906020019061018c9291906101d4565b506040820151816002015590505060008081548092919060010191905055505050565b606060405190810160405280600060ff16815260200160608152602001600081525090565b828054600181600116156101000203166002900490600052602060002090601f016020900481019282601f1061021557805160ff1916838001178555610243565b82800160010185558215610243579182015b82811115610242578251825591602001919060010190610227565b5b5090506102509190610254565b5090565b61027691905b8082111561027257600081600090555060010161025a565b5090565b9056fea165627a7a72305820113e96066073be7c7eb9e3076da677ce0ab10f6d329e960cef90a34e5e8efc8a0029",
  "source": "pragma solidity ^0.5.0;\n\n\ncontract Review {\n\n  struct Shop {\n    uint8 score;\n    string name;\n    uint shopId;\n  }\n\n  uint shopSize = 0;\n\n  //Id <-> shop\n  mapping(uint => Shop) Shops;\n  //shop <-> review list\n  // mapping(uint => string[]) reviewMap; \n\n  function addShop(string memory name) public {\n      Shop memory s = Shop(0,name,shopSize);\n      Shops[shopSize] = s;\n      shopSize++;\n  }\n}\n",
  "sourcePath": "/Users/admin/Desktop/Reviews/contracts/Review.sol",
  "compiler": {
    "name": "solc",
    "version": "0.5.0+commit.1d4f565a.Emscripten.clang"
  },
  "schemaVersion": "3.0.6",
  "updatedAt": "2019-05-04T08:02:35.737Z",
  "devdoc": {
    "methods": {}
  },
  "userdoc": {
    "methods": {}
  }
}